{
  "address": "0x8e67e029C1B08F06F12Bc1B9eF56DfbcfDBb9AB5",
  "abi": [
    {
      "inputs": [
        {
          "internalType": "contract ENS",
          "name": "_ens",
          "type": "address"
        },
        {
          "internalType": "bytes32",
          "name": "_baseNode",
          "type": "bytes32"
        }
      ],
      "stateMutability": "nonpayable",
      "type": "constructor"
    },
    {
      "anonymous": false,
      "inputs": [
        {
          "indexed": true,
          "internalType": "address",
          "name": "owner",
          "type": "address"
        },
        {
          "indexed": true,
          "internalType": "address",
          "name": "approved",
          "type": "address"
        },
        {
          "indexed": true,
          "internalType": "uint256",
          "name": "tokenId",
          "type": "uint256"
        }
      ],
      "name": "Approval",
      "type": "event"
    },
    {
      "anonymous": false,
      "inputs": [
        {
          "indexed": true,
          "internalType": "address",
          "name": "owner",
          "type": "address"
        },
        {
          "indexed": true,
          "internalType": "address",
          "name": "operator",
          "type": "address"
        },
        {
          "indexed": false,
          "internalType": "bool",
          "name": "approved",
          "type": "bool"
        }
      ],
      "name": "ApprovalForAll",
      "type": "event"
    },
    {
      "anonymous": false,
      "inputs": [
        {
          "indexed": true,
          "internalType": "address",
          "name": "controller",
          "type": "address"
        }
      ],
      "name": "ControllerAdded",
      "type": "event"
    },
    {
      "anonymous": false,
      "inputs": [
        {
          "indexed": true,
          "internalType": "address",
          "name": "controller",
          "type": "address"
        }
      ],
      "name": "ControllerRemoved",
      "type": "event"
    },
    {
      "anonymous": false,
      "inputs": [
        {
          "indexed": true,
          "internalType": "uint256",
          "name": "id",
          "type": "uint256"
        },
        {
          "indexed": true,
          "internalType": "address",
          "name": "owner",
          "type": "address"
        },
        {
          "indexed": false,
          "internalType": "uint256",
          "name": "expires",
          "type": "uint256"
        }
      ],
      "name": "NameMigrated",
      "type": "event"
    },
    {
      "anonymous": false,
      "inputs": [
        {
          "indexed": true,
          "internalType": "uint256",
          "name": "id",
          "type": "uint256"
        },
        {
          "indexed": true,
          "internalType": "address",
          "name": "owner",
          "type": "address"
        },
        {
          "indexed": false,
          "internalType": "uint256",
          "name": "expires",
          "type": "uint256"
        }
      ],
      "name": "NameRegistered",
      "type": "event"
    },
    {
      "anonymous": false,
      "inputs": [
        {
          "indexed": true,
          "internalType": "uint256",
          "name": "id",
          "type": "uint256"
        },
        {
          "indexed": false,
          "internalType": "uint256",
          "name": "expires",
          "type": "uint256"
        }
      ],
      "name": "NameRenewed",
      "type": "event"
    },
    {
      "anonymous": false,
      "inputs": [
        {
          "indexed": true,
          "internalType": "address",
          "name": "previousOwner",
          "type": "address"
        },
        {
          "indexed": true,
          "internalType": "address",
          "name": "newOwner",
          "type": "address"
        }
      ],
      "name": "OwnershipTransferred",
      "type": "event"
    },
    {
      "anonymous": false,
      "inputs": [
        {
          "indexed": true,
          "internalType": "address",
          "name": "from",
          "type": "address"
        },
        {
          "indexed": true,
          "internalType": "address",
          "name": "to",
          "type": "address"
        },
        {
          "indexed": true,
          "internalType": "uint256",
          "name": "tokenId",
          "type": "uint256"
        }
      ],
      "name": "Transfer",
      "type": "event"
    },
    {
      "inputs": [],
      "name": "GRACE_PERIOD",
      "outputs": [
        {
          "internalType": "uint256",
          "name": "",
          "type": "uint256"
        }
      ],
      "stateMutability": "view",
      "type": "function"
    },
    {
      "inputs": [
        {
          "internalType": "address",
          "name": "controller",
          "type": "address"
        }
      ],
      "name": "addController",
      "outputs": [],
      "stateMutability": "nonpayable",
      "type": "function"
    },
    {
      "inputs": [
        {
          "internalType": "address",
          "name": "to",
          "type": "address"
        },
        {
          "internalType": "uint256",
          "name": "tokenId",
          "type": "uint256"
        }
      ],
      "name": "approve",
      "outputs": [],
      "stateMutability": "nonpayable",
      "type": "function"
    },
    {
      "inputs": [
        {
          "internalType": "uint256",
          "name": "id",
          "type": "uint256"
        }
      ],
      "name": "available",
      "outputs": [
        {
          "internalType": "bool",
          "name": "",
          "type": "bool"
        }
      ],
      "stateMutability": "view",
      "type": "function"
    },
    {
      "inputs": [
        {
          "internalType": "address",
          "name": "owner",
          "type": "address"
        }
      ],
      "name": "balanceOf",
      "outputs": [
        {
          "internalType": "uint256",
          "name": "",
          "type": "uint256"
        }
      ],
      "stateMutability": "view",
      "type": "function"
    },
    {
      "inputs": [],
      "name": "baseNode",
      "outputs": [
        {
          "internalType": "bytes32",
          "name": "",
          "type": "bytes32"
        }
      ],
      "stateMutability": "view",
      "type": "function"
    },
    {
      "inputs": [],
      "name": "baseURI",
      "outputs": [
        {
          "internalType": "string",
          "name": "",
          "type": "string"
        }
      ],
      "stateMutability": "view",
      "type": "function"
    },
    {
      "inputs": [
        {
          "internalType": "address",
          "name": "",
          "type": "address"
        }
      ],
      "name": "controllers",
      "outputs": [
        {
          "internalType": "bool",
          "name": "",
          "type": "bool"
        }
      ],
      "stateMutability": "view",
      "type": "function"
    },
    {
      "inputs": [],
      "name": "ens",
      "outputs": [
        {
          "internalType": "contract ENS",
          "name": "",
          "type": "address"
        }
      ],
      "stateMutability": "view",
      "type": "function"
    },
    {
      "inputs": [
        {
          "internalType": "uint256",
          "name": "tokenId",
          "type": "uint256"
        }
      ],
      "name": "getApproved",
      "outputs": [
        {
          "internalType": "address",
          "name": "",
          "type": "address"
        }
      ],
      "stateMutability": "view",
      "type": "function"
    },
    {
      "inputs": [
        {
          "internalType": "address",
          "name": "owner",
          "type": "address"
        },
        {
          "internalType": "address",
          "name": "operator",
          "type": "address"
        }
      ],
      "name": "isApprovedForAll",
      "outputs": [
        {
          "internalType": "bool",
          "name": "",
          "type": "bool"
        }
      ],
      "stateMutability": "view",
      "type": "function"
    },
    {
      "inputs": [],
      "name": "name",
      "outputs": [
        {
          "internalType": "string",
          "name": "",
          "type": "string"
        }
      ],
      "stateMutability": "view",
      "type": "function"
    },
    {
      "inputs": [
        {
          "internalType": "uint256",
          "name": "id",
          "type": "uint256"
        }
      ],
      "name": "nameExpires",
      "outputs": [
        {
          "internalType": "uint256",
          "name": "",
          "type": "uint256"
        }
      ],
      "stateMutability": "view",
      "type": "function"
    },
    {
      "inputs": [],
      "name": "owner",
      "outputs": [
        {
          "internalType": "address",
          "name": "",
          "type": "address"
        }
      ],
      "stateMutability": "view",
      "type": "function"
    },
    {
      "inputs": [
        {
          "internalType": "uint256",
          "name": "tokenId",
          "type": "uint256"
        }
      ],
      "name": "ownerOf",
      "outputs": [
        {
          "internalType": "address",
          "name": "",
          "type": "address"
        }
      ],
      "stateMutability": "view",
      "type": "function"
    },
    {
      "inputs": [
        {
          "internalType": "uint256",
          "name": "id",
          "type": "uint256"
        },
        {
          "internalType": "address",
          "name": "owner",
          "type": "address"
        }
      ],
      "name": "reclaim",
      "outputs": [],
      "stateMutability": "nonpayable",
      "type": "function"
    },
    {
      "inputs": [
        {
          "internalType": "uint256",
          "name": "id",
          "type": "uint256"
        },
        {
          "internalType": "address",
          "name": "owner",
          "type": "address"
        },
        {
          "internalType": "uint256",
          "name": "duration",
          "type": "uint256"
        }
      ],
      "name": "register",
      "outputs": [
        {
          "internalType": "uint256",
          "name": "",
          "type": "uint256"
        }
      ],
      "stateMutability": "nonpayable",
      "type": "function"
    },
    {
      "inputs": [
        {
          "internalType": "uint256",
          "name": "id",
          "type": "uint256"
        },
        {
          "internalType": "address",
          "name": "owner",
          "type": "address"
        },
        {
          "internalType": "uint256",
          "name": "duration",
          "type": "uint256"
        }
      ],
      "name": "registerOnly",
      "outputs": [
        {
          "internalType": "uint256",
          "name": "",
          "type": "uint256"
        }
      ],
      "stateMutability": "nonpayable",
      "type": "function"
    },
    {
      "inputs": [
        {
          "internalType": "address",
          "name": "controller",
          "type": "address"
        }
      ],
      "name": "removeController",
      "outputs": [],
      "stateMutability": "nonpayable",
      "type": "function"
    },
    {
      "inputs": [
        {
          "internalType": "uint256",
          "name": "id",
          "type": "uint256"
        },
        {
          "internalType": "uint256",
          "name": "duration",
          "type": "uint256"
        }
      ],
      "name": "renew",
      "outputs": [
        {
          "internalType": "uint256",
          "name": "",
          "type": "uint256"
        }
      ],
      "stateMutability": "nonpayable",
      "type": "function"
    },
    {
      "inputs": [],
      "name": "renounceOwnership",
      "outputs": [],
      "stateMutability": "nonpayable",
      "type": "function"
    },
    {
      "inputs": [
        {
          "internalType": "address",
          "name": "from",
          "type": "address"
        },
        {
          "internalType": "address",
          "name": "to",
          "type": "address"
        },
        {
          "internalType": "uint256",
          "name": "tokenId",
          "type": "uint256"
        }
      ],
      "name": "safeTransferFrom",
      "outputs": [],
      "stateMutability": "nonpayable",
      "type": "function"
    },
    {
      "inputs": [
        {
          "internalType": "address",
          "name": "from",
          "type": "address"
        },
        {
          "internalType": "address",
          "name": "to",
          "type": "address"
        },
        {
          "internalType": "uint256",
          "name": "tokenId",
          "type": "uint256"
        },
        {
          "internalType": "bytes",
          "name": "_data",
          "type": "bytes"
        }
      ],
      "name": "safeTransferFrom",
      "outputs": [],
      "stateMutability": "nonpayable",
      "type": "function"
    },
    {
      "inputs": [
        {
          "internalType": "address",
          "name": "operator",
          "type": "address"
        },
        {
          "internalType": "bool",
          "name": "approved",
          "type": "bool"
        }
      ],
      "name": "setApprovalForAll",
      "outputs": [],
      "stateMutability": "nonpayable",
      "type": "function"
    },
    {
      "inputs": [
        {
          "internalType": "string",
          "name": "uri",
          "type": "string"
        }
      ],
      "name": "setBaseURI",
      "outputs": [],
      "stateMutability": "nonpayable",
      "type": "function"
    },
    {
      "inputs": [
        {
          "internalType": "address",
          "name": "resolver",
          "type": "address"
        }
      ],
      "name": "setResolver",
      "outputs": [],
      "stateMutability": "nonpayable",
      "type": "function"
    },
    {
      "inputs": [
        {
          "internalType": "bytes4",
          "name": "interfaceID",
          "type": "bytes4"
        }
      ],
      "name": "supportsInterface",
      "outputs": [
        {
          "internalType": "bool",
          "name": "",
          "type": "bool"
        }
      ],
      "stateMutability": "view",
      "type": "function"
    },
    {
      "inputs": [],
      "name": "symbol",
      "outputs": [
        {
          "internalType": "string",
          "name": "",
          "type": "string"
        }
      ],
      "stateMutability": "view",
      "type": "function"
    },
    {
      "inputs": [
        {
          "internalType": "uint256",
          "name": "tokenId",
          "type": "uint256"
        }
      ],
      "name": "tokenURI",
      "outputs": [
        {
          "internalType": "string",
          "name": "",
          "type": "string"
        }
      ],
      "stateMutability": "view",
      "type": "function"
    },
    {
      "inputs": [
        {
          "internalType": "address",
          "name": "from",
          "type": "address"
        },
        {
          "internalType": "address",
          "name": "to",
          "type": "address"
        },
        {
          "internalType": "uint256",
          "name": "tokenId",
          "type": "uint256"
        }
      ],
      "name": "transferFrom",
      "outputs": [],
      "stateMutability": "nonpayable",
      "type": "function"
    },
    {
      "inputs": [
        {
          "internalType": "address",
          "name": "newOwner",
          "type": "address"
        }
      ],
      "name": "transferOwnership",
      "outputs": [],
      "stateMutability": "nonpayable",
      "type": "function"
    }
  ],
  "transactionHash": "0xd3fb3cf2cf9f550c6f01489824d49ff7c5fd87f8579064bdec8b2374f8b52867",
  "args": [
    "0x781420e2C228821Eed99403470AC62C9cc4C0Cf7",
    "0x4062ae9e99543fadaf6946b98c6f12538a99834a89521ef85301d7d91e281c8d"
  ],
  "bytecode": "0x60806040523480156200001157600080fd5b50604051620028df380380620028df8339810160408190526200003491620001a9565b604080516020808201835260008083528351918201909352918252906200005b33620000b3565b81516200007090600190602085019062000103565b5080516200008690600290602084019062000103565b5050600780546001600160a01b0319166001600160a01b0394909416939093179092556008555062000220565b600080546001600160a01b038381166001600160a01b0319831681178455604051919092169283917f8be0079c531659141344cd1fd0a4f28419497f9722a3daafe3b4186f6b6457e09190a35050565b8280546200011190620001e3565b90600052602060002090601f01602090048101928262000135576000855562000180565b82601f106200015057805160ff191683800117855562000180565b8280016001018555821562000180579182015b828111156200018057825182559160200191906001019062000163565b506200018e92915062000192565b5090565b5b808211156200018e576000815560010162000193565b60008060408385031215620001bc578182fd5b82516001600160a01b0381168114620001d3578283fd5b6020939093015192949293505050565b600181811c90821680620001f857607f821691505b602082108114156200021a57634e487b7160e01b600052602260045260246000fd5b50919050565b6126af80620002306000396000f3fe608060405234801561001057600080fd5b50600436106101e55760003560e01c80638da5cb5b1161010f578063c87b56dd116100a2578063e985e9c511610071578063e985e9c514610411578063f2fde38b1461044d578063f6a74ed714610460578063fca247ac1461047357600080fd5b8063c87b56dd146103b2578063d6e4fa86146103c5578063da8c229e146103e5578063ddf7fcb01461040857600080fd5b8063a7fc7a07116100de578063a7fc7a071461036f578063b88d4fde14610382578063c1a287e214610395578063c475abff1461039f57600080fd5b80638da5cb5b1461033057806395d89b411461034157806396e494e814610349578063a22cb4651461035c57600080fd5b80633f15457f116101875780636352211e116101565780636352211e146102fa5780636c0360eb1461030d57806370a0823114610315578063715018a61461032857600080fd5b80633f15457f146102ae57806342842e0e146102c15780634e543b26146102d457806355f804b3146102e757600080fd5b8063095ea7b3116101c3578063095ea7b3146102525780630e297b451461026757806323b872dd1461028857806328ed4f6c1461029b57600080fd5b806301ffc9a7146101ea57806306fdde0314610212578063081812fc14610227575b600080fd5b6101fd6101f83660046122a9565b610486565b60405190151581526020015b60405180910390f35b61021a61056b565b6040516102099190612486565b61023a61023536600461234e565b6105fd565b6040516001600160a01b039091168152602001610209565b610265610260366004612266565b6106a8565b005b61027a61027536600461238a565b6107da565b604051908152602001610209565b6102656102963660046120fe565b6107f1565b6102656102a9366004612366565b610878565b60075461023a906001600160a01b031681565b6102656102cf3660046120fe565b6109e1565b6102656102e236600461208e565b6109fc565b6102656102f53660046122e1565b610adc565b61023a61030836600461234e565b610b42565b61021a610b65565b61027a61032336600461208e565b610bf3565b610265610c8d565b6000546001600160a01b031661023a565b61021a610cf3565b6101fd61035736600461234e565b610d02565b61026561036a366004612235565b610d28565b61026561037d36600461208e565b610e0b565b61026561039036600461213e565b610ecf565b61027a6276a70081565b61027a6103ad3660046123b0565b610f5d565b61021a6103c036600461234e565b611116565b61027a6103d336600461234e565b6000908152600a602052604090205490565b6101fd6103f336600461208e565b60096020526000908152604090205460ff1681565b61027a60085481565b6101fd61041f3660046120c6565b6001600160a01b03918216600090815260066020908152604080832093909416825291909152205460ff1690565b61026561045b36600461208e565b6111ff565b61026561046e36600461208e565b6112e1565b61027a61048136600461238a565b6113a2565b60007fffffffff0000000000000000000000000000000000000000000000000000000082167f01ffc9a700000000000000000000000000000000000000000000000000000000148061051957507fffffffff0000000000000000000000000000000000000000000000000000000082167f80ac58cd00000000000000000000000000000000000000000000000000000000145b8061056557507fffffffff0000000000000000000000000000000000000000000000000000000082167f28ed4f6c00000000000000000000000000000000000000000000000000000000145b92915050565b60606001805461057a90612508565b80601f01602080910402602001604051908101604052809291908181526020018280546105a690612508565b80156105f35780601f106105c8576101008083540402835291602001916105f3565b820191906000526020600020905b8154815290600101906020018083116105d657829003601f168201915b5050505050905090565b6000818152600360205260408120546001600160a01b031661068c5760405162461bcd60e51b815260206004820152602c60248201527f4552433732313a20617070726f76656420717565727920666f72206e6f6e657860448201527f697374656e7420746f6b656e000000000000000000000000000000000000000060648201526084015b60405180910390fd5b506000908152600560205260409020546001600160a01b031690565b60006106b3826113b1565b9050806001600160a01b0316836001600160a01b0316141561073d5760405162461bcd60e51b815260206004820152602160248201527f4552433732313a20617070726f76616c20746f2063757272656e74206f776e6560448201527f72000000000000000000000000000000000000000000000000000000000000006064820152608401610683565b336001600160a01b03821614806107595750610759813361041f565b6107cb5760405162461bcd60e51b815260206004820152603860248201527f4552433732313a20617070726f76652063616c6c6572206973206e6f74206f7760448201527f6e6572206e6f7220617070726f76656420666f7220616c6c00000000000000006064820152608401610683565b6107d5838361143c565b505050565b60006107e984848460006114c2565b949350505050565b6107fb3382611722565b61086d5760405162461bcd60e51b815260206004820152603160248201527f4552433732313a207472616e736665722063616c6c6572206973206e6f74206f60448201527f776e6572206e6f7220617070726f7665640000000000000000000000000000006064820152608401610683565b6107d583838361179d565b6007546008546040517f02571be3000000000000000000000000000000000000000000000000000000008152600481019190915230916001600160a01b0316906302571be39060240160206040518083038186803b1580156108d957600080fd5b505afa1580156108ed573d6000803e3d6000fd5b505050506040513d601f19601f8201168201806040525081019061091191906120aa565b6001600160a01b03161461092457600080fd5b61092e3383611722565b61093757600080fd5b6007546008546040517f06ab59230000000000000000000000000000000000000000000000000000000081526004810191909152602481018490526001600160a01b038381166044830152909116906306ab592390606401602060405180830381600087803b1580156109a957600080fd5b505af11580156109bd573d6000803e3d6000fd5b505050506040513d601f19601f820116820180604052508101906107d59190612291565b6107d583838360405180602001604052806000815250610ecf565b6000546001600160a01b03163314610a565760405162461bcd60e51b815260206004820181905260248201527f4f776e61626c653a2063616c6c6572206973206e6f7420746865206f776e65726044820152606401610683565b6007546008546040517f1896f70a00000000000000000000000000000000000000000000000000000000815260048101919091526001600160a01b03838116602483015290911690631896f70a90604401600060405180830381600087803b158015610ac157600080fd5b505af1158015610ad5573d6000803e3d6000fd5b5050505050565b6000546001600160a01b03163314610b365760405162461bcd60e51b815260206004820181905260248201527f4f776e61626c653a2063616c6c6572206973206e6f7420746865206f776e65726044820152606401610683565b6107d5600b8383611fd7565b6000818152600a60205260408120544210610b5c57600080fd5b610565826113b1565b600b8054610b7290612508565b80601f0160208091040260200160405190810160405280929190818152602001828054610b9e90612508565b8015610beb5780601f10610bc057610100808354040283529160200191610beb565b820191906000526020600020905b815481529060010190602001808311610bce57829003601f168201915b505050505081565b60006001600160a01b038216610c715760405162461bcd60e51b815260206004820152602a60248201527f4552433732313a2062616c616e636520717565727920666f7220746865207a6560448201527f726f2061646472657373000000000000000000000000000000000000000000006064820152608401610683565b506001600160a01b031660009081526004602052604090205490565b6000546001600160a01b03163314610ce75760405162461bcd60e51b815260206004820181905260248201527f4f776e61626c653a2063616c6c6572206973206e6f7420746865206f776e65726044820152606401610683565b610cf16000611982565b565b60606002805461057a90612508565b6000818152600a60205260408120544290610d21906276a70090612499565b1092915050565b6001600160a01b038216331415610d815760405162461bcd60e51b815260206004820152601960248201527f4552433732313a20617070726f766520746f2063616c6c6572000000000000006044820152606401610683565b3360008181526006602090815260408083206001600160a01b0387168085529083529281902080547fffffffffffffffffffffffffffffffffffffffffffffffffffffffffffffff001686151590811790915590519081529192917f17307eab39ab6107e8899845ad3d59bd9653f200f220920489ca2b5937696c31910160405180910390a35050565b6000546001600160a01b03163314610e655760405162461bcd60e51b815260206004820181905260248201527f4f776e61626c653a2063616c6c6572206973206e6f7420746865206f776e65726044820152606401610683565b6001600160a01b03811660008181526009602052604080822080547fffffffffffffffffffffffffffffffffffffffffffffffffffffffffffffff00166001179055517f0a8bb31534c0ed46f380cb867bd5c803a189ced9a764e30b3a4991a9901d74749190a250565b610ed93383611722565b610f4b5760405162461bcd60e51b815260206004820152603160248201527f4552433732313a207472616e736665722063616c6c6572206973206e6f74206f60448201527f776e6572206e6f7220617070726f7665640000000000000000000000000000006064820152608401610683565b610f57848484846119ea565b50505050565b6007546008546040517f02571be3000000000000000000000000000000000000000000000000000000008152600481019190915260009130916001600160a01b03909116906302571be39060240160206040518083038186803b158015610fc357600080fd5b505afa158015610fd7573d6000803e3d6000fd5b505050506040513d601f19601f82011682018060405250810190610ffb91906120aa565b6001600160a01b03161461100e57600080fd5b3360009081526009602052604090205460ff1661102a57600080fd5b6000838152600a60205260409020544290611049906276a70090612499565b101561105457600080fd5b6110616276a70083612499565b6000848152600a60205260409020546276a70090611080908590612499565b61108a9190612499565b1161109457600080fd5b6000838152600a6020526040812080548492906110b2908490612499565b90915550506000838152600a60205260409081902054905184917f9b87a00e30f1ac65d898f070f8a3488fe60517182d0a2098e1b4b93a54aa9bd6916110fa91815260200190565b60405180910390a250506000908152600a602052604090205490565b6000818152600360205260409020546060906001600160a01b03166111a35760405162461bcd60e51b815260206004820152602f60248201527f4552433732314d657461646174613a2055524920717565727920666f72206e6f60448201527f6e6578697374656e7420746f6b656e00000000000000000000000000000000006064820152608401610683565b60006111ad611a73565b905060008151116111cd57604051806020016040528060008152506111f8565b806111d784611a82565b6040516020016111e892919061241b565b6040516020818303038152906040525b9392505050565b6000546001600160a01b031633146112595760405162461bcd60e51b815260206004820181905260248201527f4f776e61626c653a2063616c6c6572206973206e6f7420746865206f776e65726044820152606401610683565b6001600160a01b0381166112d55760405162461bcd60e51b815260206004820152602660248201527f4f776e61626c653a206e6577206f776e657220697320746865207a65726f206160448201527f64647265737300000000000000000000000000000000000000000000000000006064820152608401610683565b6112de81611982565b50565b6000546001600160a01b0316331461133b5760405162461bcd60e51b815260206004820181905260248201527f4f776e61626c653a2063616c6c6572206973206e6f7420746865206f776e65726044820152606401610683565b6001600160a01b03811660008181526009602052604080822080547fffffffffffffffffffffffffffffffffffffffffffffffffffffffffffffff00169055517f33d83959be2573f5453b12eb9d43b3499bc57d96bd2f067ba44803c859e811139190a250565b60006107e984848460016114c2565b6000818152600360205260408120546001600160a01b0316806105655760405162461bcd60e51b815260206004820152602960248201527f4552433732313a206f776e657220717565727920666f72206e6f6e657869737460448201527f656e7420746f6b656e00000000000000000000000000000000000000000000006064820152608401610683565b600081815260056020526040902080547fffffffffffffffffffffffff0000000000000000000000000000000000000000166001600160a01b0384169081179091558190611489826113b1565b6001600160a01b03167f8c5be1e5ebec7d5bd14f71427d1e84f3dd0314c0f7b2291e5b200ac8c7c3b92560405160405180910390a45050565b6007546008546040517f02571be3000000000000000000000000000000000000000000000000000000008152600481019190915260009130916001600160a01b03909116906302571be39060240160206040518083038186803b15801561152857600080fd5b505afa15801561153c573d6000803e3d6000fd5b505050506040513d601f19601f8201168201806040525081019061156091906120aa565b6001600160a01b03161461157357600080fd5b3360009081526009602052604090205460ff1661158f57600080fd5b61159885610d02565b6115a157600080fd5b6115ae6276a70042612499565b6276a7006115bc8542612499565b6115c69190612499565b116115d057600080fd5b6115da8342612499565b6000868152600a60209081526040808320939093556003905220546001600160a01b03161561160c5761160c85611c02565b6116168486611cb5565b81156116c8576007546008546040517f06ab59230000000000000000000000000000000000000000000000000000000081526004810191909152602481018790526001600160a01b038681166044830152909116906306ab592390606401602060405180830381600087803b15801561168e57600080fd5b505af11580156116a2573d6000803e3d6000fd5b505050506040513d601f19601f820116820180604052508101906116c69190612291565b505b6001600160a01b038416857fb3d987963d01b2f68493b4bdb130988f157ea43070d4ad840fee0466ed9370d96116fe8642612499565b60405190815260200160405180910390a36117198342612499565b95945050505050565b60008061172e83610b42565b9050806001600160a01b0316846001600160a01b031614806117695750836001600160a01b031661175e846105fd565b6001600160a01b0316145b806107e957506001600160a01b0380821660009081526006602090815260408083209388168352929052205460ff166107e9565b826001600160a01b03166117b0826113b1565b6001600160a01b03161461182c5760405162461bcd60e51b815260206004820152602960248201527f4552433732313a207472616e73666572206f6620746f6b656e2074686174206960448201527f73206e6f74206f776e00000000000000000000000000000000000000000000006064820152608401610683565b6001600160a01b0382166118a75760405162461bcd60e51b8152602060048201526024808201527f4552433732313a207472616e7366657220746f20746865207a65726f2061646460448201527f72657373000000000000000000000000000000000000000000000000000000006064820152608401610683565b6118b260008261143c565b6001600160a01b03831660009081526004602052604081208054600192906118db9084906124c5565b90915550506001600160a01b0382166000908152600460205260408120805460019290611909908490612499565b909155505060008181526003602052604080822080547fffffffffffffffffffffffff0000000000000000000000000000000000000000166001600160a01b0386811691821790925591518493918716917fddf252ad1be2c89b69c2b068fc378daa952ba7f163c4a11628f55a4df523b3ef91a4505050565b600080546001600160a01b038381167fffffffffffffffffffffffff0000000000000000000000000000000000000000831681178455604051919092169283917f8be0079c531659141344cd1fd0a4f28419497f9722a3daafe3b4186f6b6457e09190a35050565b6119f584848461179d565b611a0184848484611e0f565b610f575760405162461bcd60e51b815260206004820152603260248201527f4552433732313a207472616e7366657220746f206e6f6e20455243373231526560448201527f63656976657220696d706c656d656e74657200000000000000000000000000006064820152608401610683565b6060600b805461057a90612508565b606081611ac257505060408051808201909152600181527f3000000000000000000000000000000000000000000000000000000000000000602082015290565b8160005b8115611aec5780611ad68161255c565b9150611ae59050600a836124b1565b9150611ac6565b60008167ffffffffffffffff811115611b2e577f4e487b7100000000000000000000000000000000000000000000000000000000600052604160045260246000fd5b6040519080825280601f01601f191660200182016040528015611b58576020820181803683370190505b5090505b84156107e957611b6d6001836124c5565b9150611b7a600a86612595565b611b85906030612499565b60f81b818381518110611bc1577f4e487b7100000000000000000000000000000000000000000000000000000000600052603260045260246000fd5b60200101907effffffffffffffffffffffffffffffffffffffffffffffffffffffffffffff1916908160001a905350611bfb600a866124b1565b9450611b5c565b6000611c0d826113b1565b9050611c1a60008361143c565b6001600160a01b0381166000908152600460205260408120805460019290611c439084906124c5565b909155505060008281526003602052604080822080547fffffffffffffffffffffffff0000000000000000000000000000000000000000169055518391906001600160a01b038416907fddf252ad1be2c89b69c2b068fc378daa952ba7f163c4a11628f55a4df523b3ef908390a45050565b6001600160a01b038216611d0b5760405162461bcd60e51b815260206004820181905260248201527f4552433732313a206d696e7420746f20746865207a65726f20616464726573736044820152606401610683565b6000818152600360205260409020546001600160a01b031615611d705760405162461bcd60e51b815260206004820152601c60248201527f4552433732313a20746f6b656e20616c7265616479206d696e746564000000006044820152606401610683565b6001600160a01b0382166000908152600460205260408120805460019290611d99908490612499565b909155505060008181526003602052604080822080547fffffffffffffffffffffffff0000000000000000000000000000000000000000166001600160a01b03861690811790915590518392907fddf252ad1be2c89b69c2b068fc378daa952ba7f163c4a11628f55a4df523b3ef908290a45050565b60006001600160a01b0384163b15611fcf576040517f150b7a020000000000000000000000000000000000000000000000000000000081526001600160a01b0385169063150b7a0290611e6c90339089908890889060040161244a565b602060405180830381600087803b158015611e8657600080fd5b505af1925050508015611ed4575060408051601f3d9081017fffffffffffffffffffffffffffffffffffffffffffffffffffffffffffffffe0168201909252611ed1918101906122c5565b60015b611f84573d808015611f02576040519150601f19603f3d011682016040523d82523d6000602084013e611f07565b606091505b508051611f7c5760405162461bcd60e51b815260206004820152603260248201527f4552433732313a207472616e7366657220746f206e6f6e20455243373231526560448201527f63656976657220696d706c656d656e74657200000000000000000000000000006064820152608401610683565b805181602001fd5b7fffffffff00000000000000000000000000000000000000000000000000000000167f150b7a02000000000000000000000000000000000000000000000000000000001490506107e9565b5060016107e9565b828054611fe390612508565b90600052602060002090601f0160209004810192826120055760008555612069565b82601f1061203c578280017fffffffffffffffffffffffffffffffffffffffffffffffffffffffffffffff00823516178555612069565b82800160010185558215612069579182015b8281111561206957823582559160200191906001019061204e565b50612075929150612079565b5090565b5b80821115612075576000815560010161207a565b60006020828403121561209f578081fd5b81356111f881612636565b6000602082840312156120bb578081fd5b81516111f881612636565b600080604083850312156120d8578081fd5b82356120e381612636565b915060208301356120f381612636565b809150509250929050565b600080600060608486031215612112578081fd5b833561211d81612636565b9250602084013561212d81612636565b929592945050506040919091013590565b60008060008060808587031215612153578081fd5b843561215e81612636565b9350602085013561216e81612636565b925060408501359150606085013567ffffffffffffffff80821115612191578283fd5b818701915087601f8301126121a4578283fd5b8135818111156121b6576121b6612607565b604051601f82017fffffffffffffffffffffffffffffffffffffffffffffffffffffffffffffffe0908116603f011681019083821181831017156121fc576121fc612607565b816040528281528a6020848701011115612214578586fd5b82602086016020830137918201602001949094529598949750929550505050565b60008060408385031215612247578182fd5b823561225281612636565b9150602083013580151581146120f3578182fd5b60008060408385031215612278578182fd5b823561228381612636565b946020939093013593505050565b6000602082840312156122a2578081fd5b5051919050565b6000602082840312156122ba578081fd5b81356111f88161264b565b6000602082840312156122d6578081fd5b81516111f88161264b565b600080602083850312156122f3578182fd5b823567ffffffffffffffff8082111561230a578384fd5b818501915085601f83011261231d578384fd5b81358181111561232b578485fd5b86602082850101111561233c578485fd5b60209290920196919550909350505050565b60006020828403121561235f578081fd5b5035919050565b60008060408385031215612378578182fd5b8235915060208301356120f381612636565b60008060006060848603121561239e578283fd5b83359250602084013561212d81612636565b600080604083850312156123c2578182fd5b50508035926020909101359150565b600081518084526123e98160208601602086016124dc565b601f017fffffffffffffffffffffffffffffffffffffffffffffffffffffffffffffffe0169290920160200192915050565b6000835161242d8184602088016124dc565b8351908301906124418183602088016124dc565b01949350505050565b60006001600160a01b0380871683528086166020840152508360408301526080606083015261247c60808301846123d1565b9695505050505050565b6020815260006111f860208301846123d1565b600082198211156124ac576124ac6125a9565b500190565b6000826124c0576124c06125d8565b500490565b6000828210156124d7576124d76125a9565b500390565b60005b838110156124f75781810151838201526020016124df565b83811115610f575750506000910152565b600181811c9082168061251c57607f821691505b60208210811415612556577f4e487b7100000000000000000000000000000000000000000000000000000000600052602260045260246000fd5b50919050565b60007fffffffffffffffffffffffffffffffffffffffffffffffffffffffffffffffff82141561258e5761258e6125a9565b5060010190565b6000826125a4576125a46125d8565b500690565b7f4e487b7100000000000000000000000000000000000000000000000000000000600052601160045260246000fd5b7f4e487b7100000000000000000000000000000000000000000000000000000000600052601260045260246000fd5b7f4e487b7100000000000000000000000000000000000000000000000000000000600052604160045260246000fd5b6001600160a01b03811681146112de57600080fd5b7fffffffff00000000000000000000000000000000000000000000000000000000811681146112de57600080fdfea2646970667358221220316a6fdc2a271d0b1fa4473debee30d5096ee08fb511a111d6483145f98889fa64736f6c63430008040033"
}