{
  "address": "0x07D127d14Bbd2af65fd86537913acAd35D6c0682",
  "abi": [
    {
      "inputs": [
        {
          "internalType": "contract ENS",
          "name": "_ens",
          "type": "address"
        },
        {
          "internalType": "bytes32",
          "name": "_baseNode",
          "type": "bytes32"
        },
        {
          "internalType": "string",
          "name": "_baseNodeName",
          "type": "string"
        }
      ],
      "stateMutability": "nonpayable",
      "type": "constructor"
    },
    {
      "anonymous": false,
      "inputs": [
        {
          "indexed": true,
          "internalType": "address",
          "name": "owner",
          "type": "address"
        },
        {
          "indexed": true,
          "internalType": "address",
          "name": "approved",
          "type": "address"
        },
        {
          "indexed": true,
          "internalType": "uint256",
          "name": "tokenId",
          "type": "uint256"
        }
      ],
      "name": "Approval",
      "type": "event"
    },
    {
      "anonymous": false,
      "inputs": [
        {
          "indexed": true,
          "internalType": "address",
          "name": "owner",
          "type": "address"
        },
        {
          "indexed": true,
          "internalType": "address",
          "name": "operator",
          "type": "address"
        },
        {
          "indexed": false,
          "internalType": "bool",
          "name": "approved",
          "type": "bool"
        }
      ],
      "name": "ApprovalForAll",
      "type": "event"
    },
    {
      "anonymous": false,
      "inputs": [
        {
          "indexed": true,
          "internalType": "address",
          "name": "controller",
          "type": "address"
        }
      ],
      "name": "ControllerAdded",
      "type": "event"
    },
    {
      "anonymous": false,
      "inputs": [
        {
          "indexed": true,
          "internalType": "address",
          "name": "controller",
          "type": "address"
        }
      ],
      "name": "ControllerRemoved",
      "type": "event"
    },
    {
      "anonymous": false,
      "inputs": [
        {
          "indexed": true,
          "internalType": "uint256",
          "name": "id",
          "type": "uint256"
        },
        {
          "indexed": true,
          "internalType": "address",
          "name": "owner",
          "type": "address"
        },
        {
          "indexed": false,
          "internalType": "uint256",
          "name": "expires",
          "type": "uint256"
        }
      ],
      "name": "NameMigrated",
      "type": "event"
    },
    {
      "anonymous": false,
      "inputs": [
        {
          "indexed": true,
          "internalType": "uint256",
          "name": "id",
          "type": "uint256"
        },
        {
          "indexed": true,
          "internalType": "address",
          "name": "owner",
          "type": "address"
        },
        {
          "indexed": false,
          "internalType": "uint256",
          "name": "expires",
          "type": "uint256"
        }
      ],
      "name": "NameRegistered",
      "type": "event"
    },
    {
      "anonymous": false,
      "inputs": [
        {
          "indexed": true,
          "internalType": "uint256",
          "name": "id",
          "type": "uint256"
        },
        {
          "indexed": false,
          "internalType": "uint256",
          "name": "expires",
          "type": "uint256"
        }
      ],
      "name": "NameRenewed",
      "type": "event"
    },
    {
      "anonymous": false,
      "inputs": [
        {
          "indexed": true,
          "internalType": "address",
          "name": "previousOwner",
          "type": "address"
        },
        {
          "indexed": true,
          "internalType": "address",
          "name": "newOwner",
          "type": "address"
        }
      ],
      "name": "OwnershipTransferred",
      "type": "event"
    },
    {
      "anonymous": false,
      "inputs": [
        {
          "indexed": true,
          "internalType": "address",
          "name": "from",
          "type": "address"
        },
        {
          "indexed": true,
          "internalType": "address",
          "name": "to",
          "type": "address"
        },
        {
          "indexed": true,
          "internalType": "uint256",
          "name": "tokenId",
          "type": "uint256"
        }
      ],
      "name": "Transfer",
      "type": "event"
    },
    {
      "inputs": [],
      "name": "GRACE_PERIOD",
      "outputs": [
        {
          "internalType": "uint256",
          "name": "",
          "type": "uint256"
        }
      ],
      "stateMutability": "view",
      "type": "function"
    },
    {
      "inputs": [
        {
          "internalType": "address",
          "name": "controller",
          "type": "address"
        }
      ],
      "name": "addController",
      "outputs": [],
      "stateMutability": "nonpayable",
      "type": "function"
    },
    {
      "inputs": [
        {
          "internalType": "address",
          "name": "to",
          "type": "address"
        },
        {
          "internalType": "uint256",
          "name": "tokenId",
          "type": "uint256"
        }
      ],
      "name": "approve",
      "outputs": [],
      "stateMutability": "nonpayable",
      "type": "function"
    },
    {
      "inputs": [
        {
          "internalType": "uint256",
          "name": "id",
          "type": "uint256"
        }
      ],
      "name": "available",
      "outputs": [
        {
          "internalType": "bool",
          "name": "",
          "type": "bool"
        }
      ],
      "stateMutability": "view",
      "type": "function"
    },
    {
      "inputs": [
        {
          "internalType": "address",
          "name": "owner",
          "type": "address"
        }
      ],
      "name": "balanceOf",
      "outputs": [
        {
          "internalType": "uint256",
          "name": "",
          "type": "uint256"
        }
      ],
      "stateMutability": "view",
      "type": "function"
    },
    {
      "inputs": [],
      "name": "baseNode",
      "outputs": [
        {
          "internalType": "bytes32",
          "name": "",
          "type": "bytes32"
        }
      ],
      "stateMutability": "view",
      "type": "function"
    },
    {
      "inputs": [],
      "name": "baseNodeName",
      "outputs": [
        {
          "internalType": "string",
          "name": "",
          "type": "string"
        }
      ],
      "stateMutability": "view",
      "type": "function"
    },
    {
      "inputs": [],
      "name": "baseURI",
      "outputs": [
        {
          "internalType": "string",
          "name": "",
          "type": "string"
        }
      ],
      "stateMutability": "view",
      "type": "function"
    },
    {
      "inputs": [
        {
          "internalType": "address",
          "name": "",
          "type": "address"
        }
      ],
      "name": "controllers",
      "outputs": [
        {
          "internalType": "bool",
          "name": "",
          "type": "bool"
        }
      ],
      "stateMutability": "view",
      "type": "function"
    },
    {
      "inputs": [],
      "name": "ens",
      "outputs": [
        {
          "internalType": "contract ENS",
          "name": "",
          "type": "address"
        }
      ],
      "stateMutability": "view",
      "type": "function"
    },
    {
      "inputs": [
        {
          "internalType": "uint256",
          "name": "tokenId",
          "type": "uint256"
        }
      ],
      "name": "getApproved",
      "outputs": [
        {
          "internalType": "address",
          "name": "",
          "type": "address"
        }
      ],
      "stateMutability": "view",
      "type": "function"
    },
    {
      "inputs": [
        {
          "internalType": "address",
          "name": "owner",
          "type": "address"
        },
        {
          "internalType": "address",
          "name": "operator",
          "type": "address"
        }
      ],
      "name": "isApprovedForAll",
      "outputs": [
        {
          "internalType": "bool",
          "name": "",
          "type": "bool"
        }
      ],
      "stateMutability": "view",
      "type": "function"
    },
    {
      "inputs": [],
      "name": "name",
      "outputs": [
        {
          "internalType": "string",
          "name": "",
          "type": "string"
        }
      ],
      "stateMutability": "view",
      "type": "function"
    },
    {
      "inputs": [
        {
          "internalType": "uint256",
          "name": "id",
          "type": "uint256"
        }
      ],
      "name": "nameExpires",
      "outputs": [
        {
          "internalType": "uint256",
          "name": "",
          "type": "uint256"
        }
      ],
      "stateMutability": "view",
      "type": "function"
    },
    {
      "inputs": [],
      "name": "owner",
      "outputs": [
        {
          "internalType": "address",
          "name": "",
          "type": "address"
        }
      ],
      "stateMutability": "view",
      "type": "function"
    },
    {
      "inputs": [
        {
          "internalType": "uint256",
          "name": "tokenId",
          "type": "uint256"
        }
      ],
      "name": "ownerOf",
      "outputs": [
        {
          "internalType": "address",
          "name": "",
          "type": "address"
        }
      ],
      "stateMutability": "view",
      "type": "function"
    },
    {
      "inputs": [
        {
          "internalType": "uint256",
          "name": "id",
          "type": "uint256"
        },
        {
          "internalType": "address",
          "name": "owner",
          "type": "address"
        }
      ],
      "name": "reclaim",
      "outputs": [],
      "stateMutability": "nonpayable",
      "type": "function"
    },
    {
      "inputs": [
        {
          "internalType": "uint256",
          "name": "id",
          "type": "uint256"
        },
        {
          "internalType": "address",
          "name": "owner",
          "type": "address"
        },
        {
          "internalType": "uint256",
          "name": "duration",
          "type": "uint256"
        }
      ],
      "name": "register",
      "outputs": [
        {
          "internalType": "uint256",
          "name": "",
          "type": "uint256"
        }
      ],
      "stateMutability": "nonpayable",
      "type": "function"
    },
    {
      "inputs": [
        {
          "internalType": "uint256",
          "name": "id",
          "type": "uint256"
        },
        {
          "internalType": "address",
          "name": "owner",
          "type": "address"
        },
        {
          "internalType": "uint256",
          "name": "duration",
          "type": "uint256"
        }
      ],
      "name": "registerOnly",
      "outputs": [
        {
          "internalType": "uint256",
          "name": "",
          "type": "uint256"
        }
      ],
      "stateMutability": "nonpayable",
      "type": "function"
    },
    {
      "inputs": [
        {
          "internalType": "address",
          "name": "controller",
          "type": "address"
        }
      ],
      "name": "removeController",
      "outputs": [],
      "stateMutability": "nonpayable",
      "type": "function"
    },
    {
      "inputs": [
        {
          "internalType": "uint256",
          "name": "id",
          "type": "uint256"
        },
        {
          "internalType": "uint256",
          "name": "duration",
          "type": "uint256"
        }
      ],
      "name": "renew",
      "outputs": [
        {
          "internalType": "uint256",
          "name": "",
          "type": "uint256"
        }
      ],
      "stateMutability": "nonpayable",
      "type": "function"
    },
    {
      "inputs": [],
      "name": "renounceOwnership",
      "outputs": [],
      "stateMutability": "nonpayable",
      "type": "function"
    },
    {
      "inputs": [
        {
          "internalType": "address",
          "name": "from",
          "type": "address"
        },
        {
          "internalType": "address",
          "name": "to",
          "type": "address"
        },
        {
          "internalType": "uint256",
          "name": "tokenId",
          "type": "uint256"
        }
      ],
      "name": "safeTransferFrom",
      "outputs": [],
      "stateMutability": "nonpayable",
      "type": "function"
    },
    {
      "inputs": [
        {
          "internalType": "address",
          "name": "from",
          "type": "address"
        },
        {
          "internalType": "address",
          "name": "to",
          "type": "address"
        },
        {
          "internalType": "uint256",
          "name": "tokenId",
          "type": "uint256"
        },
        {
          "internalType": "bytes",
          "name": "_data",
          "type": "bytes"
        }
      ],
      "name": "safeTransferFrom",
      "outputs": [],
      "stateMutability": "nonpayable",
      "type": "function"
    },
    {
      "inputs": [
        {
          "internalType": "address",
          "name": "operator",
          "type": "address"
        },
        {
          "internalType": "bool",
          "name": "approved",
          "type": "bool"
        }
      ],
      "name": "setApprovalForAll",
      "outputs": [],
      "stateMutability": "nonpayable",
      "type": "function"
    },
    {
      "inputs": [
        {
          "internalType": "string",
          "name": "uri",
          "type": "string"
        }
      ],
      "name": "setBaseURI",
      "outputs": [],
      "stateMutability": "nonpayable",
      "type": "function"
    },
    {
      "inputs": [
        {
          "internalType": "address",
          "name": "resolver",
          "type": "address"
        }
      ],
      "name": "setResolver",
      "outputs": [],
      "stateMutability": "nonpayable",
      "type": "function"
    },
    {
      "inputs": [
        {
          "internalType": "bytes4",
          "name": "interfaceID",
          "type": "bytes4"
        }
      ],
      "name": "supportsInterface",
      "outputs": [
        {
          "internalType": "bool",
          "name": "",
          "type": "bool"
        }
      ],
      "stateMutability": "view",
      "type": "function"
    },
    {
      "inputs": [],
      "name": "symbol",
      "outputs": [
        {
          "internalType": "string",
          "name": "",
          "type": "string"
        }
      ],
      "stateMutability": "view",
      "type": "function"
    },
    {
      "inputs": [
        {
          "internalType": "uint256",
          "name": "index",
          "type": "uint256"
        }
      ],
      "name": "tokenByIndex",
      "outputs": [
        {
          "internalType": "uint256",
          "name": "",
          "type": "uint256"
        }
      ],
      "stateMutability": "view",
      "type": "function"
    },
    {
      "inputs": [
        {
          "internalType": "address",
          "name": "owner",
          "type": "address"
        },
        {
          "internalType": "uint256",
          "name": "index",
          "type": "uint256"
        }
      ],
      "name": "tokenOfOwnerByIndex",
      "outputs": [
        {
          "internalType": "uint256",
          "name": "",
          "type": "uint256"
        }
      ],
      "stateMutability": "view",
      "type": "function"
    },
    {
      "inputs": [
        {
          "internalType": "uint256",
          "name": "tokenId",
          "type": "uint256"
        }
      ],
      "name": "tokenURI",
      "outputs": [
        {
          "internalType": "string",
          "name": "",
          "type": "string"
        }
      ],
      "stateMutability": "view",
      "type": "function"
    },
    {
      "inputs": [],
      "name": "totalSupply",
      "outputs": [
        {
          "internalType": "uint256",
          "name": "",
          "type": "uint256"
        }
      ],
      "stateMutability": "view",
      "type": "function"
    },
    {
      "inputs": [
        {
          "internalType": "address",
          "name": "from",
          "type": "address"
        },
        {
          "internalType": "address",
          "name": "to",
          "type": "address"
        },
        {
          "internalType": "uint256",
          "name": "tokenId",
          "type": "uint256"
        }
      ],
      "name": "transferFrom",
      "outputs": [],
      "stateMutability": "nonpayable",
      "type": "function"
    },
    {
      "inputs": [
        {
          "internalType": "address",
          "name": "newOwner",
          "type": "address"
        }
      ],
      "name": "transferOwnership",
      "outputs": [],
      "stateMutability": "nonpayable",
      "type": "function"
    }
  ],
  "transactionHash": "0xa2f5d495c3934eac7ece8e0c1a9deee3c53ea1b3c531616ef13dce1eda3dd68d",
  "args": [
    "0x08850859CE6B62A39918c8B806AfbE3442fE7b0b",
    "0x294e2d893ce499d687a17323b05880c4cf91b7fcf595374ecf3f9eb52aff9398",
    "doge"
  ],
  "bytecode": "0x60806040523480156200001157600080fd5b506040516200334438038062003344833981016040819052620000349162000302565b806040516020016200004791906200040f565b60408051601f19818403018152908290526200006691602001620003e1565b6040516020818303038152906040526200008b826200012560201b6200153a1760201c565b6040516020016200009d91906200040f565b60408051808303601f19018152919052620000b833620001c3565b8151620000cd90600190602085019062000266565b508051620000e390600290602084019062000266565b5050600b80546001600160a01b0319166001600160a01b03861617905550600c82905580516200011b90601090602084019062000266565b505050506200051a565b60608160005b8151811015620001bc576200016f8282815181106200015a57634e487b7160e01b600052603260045260246000fd5b01602001516001600160f81b03191662000213565b8282815181106200019057634e487b7160e01b600052603260045260246000fd5b60200101906001600160f81b031916908160001a90535080620001b381620004d0565b9150506200012b565b5092915050565b600080546001600160a01b038381166001600160a01b0319831681178455604051919092169283917f8be0079c531659141344cd1fd0a4f28419497f9722a3daafe3b4186f6b6457e09190a35050565b6000606160f81b6001600160f81b0319831610801590620002425750603d60f91b6001600160f81b0319831611155b15620002625762000259602060f884901c6200043a565b60f81b92915050565b5090565b828054620002749062000493565b90600052602060002090601f016020900481019282620002985760008555620002e3565b82601f10620002b357805160ff1916838001178555620002e3565b82800160010185558215620002e3579182015b82811115620002e3578251825591602001919060010190620002c6565b50620002629291505b80821115620002625760008155600101620002ec565b60008060006060848603121562000317578283fd5b83516001600160a01b03811681146200032e578384fd5b6020850151604086015191945092506001600160401b038082111562000352578283fd5b818601915086601f83011262000366578283fd5b8151818111156200037b576200037b62000504565b604051601f8201601f19908116603f01168101908382118183101715620003a657620003a662000504565b81604052828152896020848701011115620003bf578586fd5b620003d283602083016020880162000460565b80955050505050509250925092565b60008251620003f581846020870162000460565b6720646f6d61696e7360c01b920191825250600801919050565b601760f91b8152600082516200042d81600185016020870162000460565b9190910160010192915050565b600060ff821660ff841680821015620004575762000457620004ee565b90039392505050565b60005b838110156200047d57818101518382015260200162000463565b838111156200048d576000848401525b50505050565b600181811c90821680620004a857607f821691505b60208210811415620004ca57634e487b7160e01b600052602260045260246000fd5b50919050565b6000600019821415620004e757620004e7620004ee565b5060010190565b634e487b7160e01b600052601160045260246000fd5b634e487b7160e01b600052604160045260246000fd5b612e1a806200052a6000396000f3fe608060405234801561001057600080fd5b50600436106102415760003560e01c8063715018a611610145578063c475abff116100bd578063ddf7fcb01161008c578063f2fde38b11610071578063f2fde38b146104df578063f6a74ed7146104f2578063fca247ac1461050557600080fd5b8063ddf7fcb01461049a578063e985e9c5146104a357600080fd5b8063c475abff14610431578063c87b56dd14610444578063d6e4fa8614610457578063da8c229e1461047757600080fd5b8063a22cb46511610114578063a9ad1b0f116100f9578063a9ad1b0f1461040c578063b88d4fde14610414578063c1a287e21461042757600080fd5b8063a22cb465146103e6578063a7fc7a07146103f957600080fd5b8063715018a6146103b25780638da5cb5b146103ba57806395d89b41146103cb57806396e494e8146103d357600080fd5b80632f745c59116101d85780634f6ccce7116101a75780636352211e1161018c5780636352211e146103845780636c0360eb1461039757806370a082311461039f57600080fd5b80634f6ccce71461035e57806355f804b31461037157600080fd5b80632f745c59146103125780633f15457f1461032557806342842e0e146103385780634e543b261461034b57600080fd5b80630e297b45116102145780630e297b45146102c357806318160ddd146102e457806323b872dd146102ec57806328ed4f6c146102ff57600080fd5b806301ffc9a71461024657806306fdde031461026e578063081812fc14610283578063095ea7b3146102ae575b600080fd5b6102596102543660046129f1565b610518565b60405190151581526020015b60405180910390f35b610276610574565b6040516102659190612bce565b610296610291366004612a96565b610606565b6040516001600160a01b039091168152602001610265565b6102c16102bc3660046129ae565b6106b1565b005b6102d66102d1366004612ad2565b6107e3565b604051908152602001610265565b6009546102d6565b6102c16102fa366004612846565b6107fa565b6102c161030d366004612aae565b610881565b6102d66103203660046129ae565b6109ea565b600b54610296906001600160a01b031681565b6102c1610346366004612846565b610a92565b6102c16103593660046127d6565b610aad565b6102d661036c366004612a96565b610b8d565b6102c161037f366004612a29565b610c58565b610296610392366004612a96565b610cbe565b610276610ce1565b6102d66103ad3660046127d6565b610d6f565b6102c1610e09565b6000546001600160a01b0316610296565b610276610e6f565b6102596103e1366004612a96565b610e7e565b6102c16103f436600461297d565b610ea4565b6102c16104073660046127d6565b610f87565b61027661104b565b6102c1610422366004612886565b611058565b6102d66276a70081565b6102d661043f366004612af8565b6110e6565b610276610452366004612a96565b61129f565b6102d6610465366004612a96565b6000908152600e602052604090205490565b6102596104853660046127d6565b600d6020526000908152604090205460ff1681565b6102d6600c5481565b6102596104b136600461280e565b6001600160a01b03918216600090815260066020908152604080832093909416825291909152205460ff1690565b6102c16104ed3660046127d6565b611388565b6102c16105003660046127d6565b61146a565b6102d6610513366004612ad2565b61152b565b60007fffffffff0000000000000000000000000000000000000000000000000000000082167f28ed4f6c00000000000000000000000000000000000000000000000000000000148061056e575061056e82611632565b92915050565b60606001805461058390612c73565b80601f01602080910402602001604051908101604052809291908181526020018280546105af90612c73565b80156105fc5780601f106105d1576101008083540402835291602001916105fc565b820191906000526020600020905b8154815290600101906020018083116105df57829003601f168201915b5050505050905090565b6000818152600360205260408120546001600160a01b03166106955760405162461bcd60e51b815260206004820152602c60248201527f4552433732313a20617070726f76656420717565727920666f72206e6f6e657860448201527f697374656e7420746f6b656e000000000000000000000000000000000000000060648201526084015b60405180910390fd5b506000908152600560205260409020546001600160a01b031690565b60006106bc82611688565b9050806001600160a01b0316836001600160a01b031614156107465760405162461bcd60e51b815260206004820152602160248201527f4552433732313a20617070726f76616c20746f2063757272656e74206f776e6560448201527f7200000000000000000000000000000000000000000000000000000000000000606482015260840161068c565b336001600160a01b0382161480610762575061076281336104b1565b6107d45760405162461bcd60e51b815260206004820152603860248201527f4552433732313a20617070726f76652063616c6c6572206973206e6f74206f7760448201527f6e6572206e6f7220617070726f76656420666f7220616c6c0000000000000000606482015260840161068c565b6107de8383611713565b505050565b60006107f28484846000611799565b949350505050565b61080433826119f9565b6108765760405162461bcd60e51b815260206004820152603160248201527f4552433732313a207472616e736665722063616c6c6572206973206e6f74206f60448201527f776e6572206e6f7220617070726f766564000000000000000000000000000000606482015260840161068c565b6107de838383611a74565b600b54600c546040517f02571be3000000000000000000000000000000000000000000000000000000008152600481019190915230916001600160a01b0316906302571be39060240160206040518083038186803b1580156108e257600080fd5b505afa1580156108f6573d6000803e3d6000fd5b505050506040513d601f19601f8201168201806040525081019061091a91906127f2565b6001600160a01b03161461092d57600080fd5b61093733836119f9565b61094057600080fd5b600b54600c546040517f06ab59230000000000000000000000000000000000000000000000000000000081526004810191909152602481018490526001600160a01b038381166044830152909116906306ab592390606401602060405180830381600087803b1580156109b257600080fd5b505af11580156109c6573d6000803e3d6000fd5b505050506040513d601f19601f820116820180604052508101906107de91906129d9565b60006109f583610d6f565b8210610a695760405162461bcd60e51b815260206004820152602b60248201527f455243373231456e756d657261626c653a206f776e657220696e646578206f7560448201527f74206f6620626f756e6473000000000000000000000000000000000000000000606482015260840161068c565b506001600160a01b03919091166000908152600760209081526040808320938352929052205490565b6107de83838360405180602001604052806000815250611058565b6000546001600160a01b03163314610b075760405162461bcd60e51b815260206004820181905260248201527f4f776e61626c653a2063616c6c6572206973206e6f7420746865206f776e6572604482015260640161068c565b600b54600c546040517f1896f70a00000000000000000000000000000000000000000000000000000000815260048101919091526001600160a01b03838116602483015290911690631896f70a90604401600060405180830381600087803b158015610b7257600080fd5b505af1158015610b86573d6000803e3d6000fd5b5050505050565b6000610b9860095490565b8210610c0c5760405162461bcd60e51b815260206004820152602c60248201527f455243373231456e756d657261626c653a20676c6f62616c20696e646578206f60448201527f7574206f6620626f756e64730000000000000000000000000000000000000000606482015260840161068c565b60098281548110610c46577f4e487b7100000000000000000000000000000000000000000000000000000000600052603260045260246000fd5b90600052602060002001549050919050565b6000546001600160a01b03163314610cb25760405162461bcd60e51b815260206004820181905260248201527f4f776e61626c653a2063616c6c6572206973206e6f7420746865206f776e6572604482015260640161068c565b6107de600f8383612728565b6000818152600e60205260408120544210610cd857600080fd5b61056e82611688565b600f8054610cee90612c73565b80601f0160208091040260200160405190810160405280929190818152602001828054610d1a90612c73565b8015610d675780601f10610d3c57610100808354040283529160200191610d67565b820191906000526020600020905b815481529060010190602001808311610d4a57829003601f168201915b505050505081565b60006001600160a01b038216610ded5760405162461bcd60e51b815260206004820152602a60248201527f4552433732313a2062616c616e636520717565727920666f7220746865207a6560448201527f726f206164647265737300000000000000000000000000000000000000000000606482015260840161068c565b506001600160a01b031660009081526004602052604090205490565b6000546001600160a01b03163314610e635760405162461bcd60e51b815260206004820181905260248201527f4f776e61626c653a2063616c6c6572206973206e6f7420746865206f776e6572604482015260640161068c565b610e6d6000611c64565b565b60606002805461058390612c73565b6000818152600e60205260408120544290610e9d906276a70090612be1565b1092915050565b6001600160a01b038216331415610efd5760405162461bcd60e51b815260206004820152601960248201527f4552433732313a20617070726f766520746f2063616c6c657200000000000000604482015260640161068c565b3360008181526006602090815260408083206001600160a01b0387168085529083529281902080547fffffffffffffffffffffffffffffffffffffffffffffffffffffffffffffff001686151590811790915590519081529192917f17307eab39ab6107e8899845ad3d59bd9653f200f220920489ca2b5937696c31910160405180910390a35050565b6000546001600160a01b03163314610fe15760405162461bcd60e51b815260206004820181905260248201527f4f776e61626c653a2063616c6c6572206973206e6f7420746865206f776e6572604482015260640161068c565b6001600160a01b0381166000818152600d602052604080822080547fffffffffffffffffffffffffffffffffffffffffffffffffffffffffffffff00166001179055517f0a8bb31534c0ed46f380cb867bd5c803a189ced9a764e30b3a4991a9901d74749190a250565b60108054610cee90612c73565b61106233836119f9565b6110d45760405162461bcd60e51b815260206004820152603160248201527f4552433732313a207472616e736665722063616c6c6572206973206e6f74206f60448201527f776e6572206e6f7220617070726f766564000000000000000000000000000000606482015260840161068c565b6110e084848484611ccc565b50505050565b600b54600c546040517f02571be3000000000000000000000000000000000000000000000000000000008152600481019190915260009130916001600160a01b03909116906302571be39060240160206040518083038186803b15801561114c57600080fd5b505afa158015611160573d6000803e3d6000fd5b505050506040513d601f19601f8201168201806040525081019061118491906127f2565b6001600160a01b03161461119757600080fd5b336000908152600d602052604090205460ff166111b357600080fd5b6000838152600e602052604090205442906111d2906276a70090612be1565b10156111dd57600080fd5b6111ea6276a70083612be1565b6000848152600e60205260409020546276a70090611209908590612be1565b6112139190612be1565b1161121d57600080fd5b6000838152600e60205260408120805484929061123b908490612be1565b90915550506000838152600e60205260409081902054905184917f9b87a00e30f1ac65d898f070f8a3488fe60517182d0a2098e1b4b93a54aa9bd69161128391815260200190565b60405180910390a250506000908152600e602052604090205490565b6000818152600360205260409020546060906001600160a01b031661132c5760405162461bcd60e51b815260206004820152602f60248201527f4552433732314d657461646174613a2055524920717565727920666f72206e6f60448201527f6e6578697374656e7420746f6b656e0000000000000000000000000000000000606482015260840161068c565b6000611336611d55565b905060008151116113565760405180602001604052806000815250611381565b8061136084611d64565b604051602001611371929190612b63565b6040516020818303038152906040525b9392505050565b6000546001600160a01b031633146113e25760405162461bcd60e51b815260206004820181905260248201527f4f776e61626c653a2063616c6c6572206973206e6f7420746865206f776e6572604482015260640161068c565b6001600160a01b03811661145e5760405162461bcd60e51b815260206004820152602660248201527f4f776e61626c653a206e6577206f776e657220697320746865207a65726f206160448201527f6464726573730000000000000000000000000000000000000000000000000000606482015260840161068c565b61146781611c64565b50565b6000546001600160a01b031633146114c45760405162461bcd60e51b815260206004820181905260248201527f4f776e61626c653a2063616c6c6572206973206e6f7420746865206f776e6572604482015260640161068c565b6001600160a01b0381166000818152600d602052604080822080547fffffffffffffffffffffffffffffffffffffffffffffffffffffffffffffff00169055517f33d83959be2573f5453b12eb9d43b3499bc57d96bd2f067ba44803c859e811139190a250565b60006107f28484846001611799565b60608160005b815181101561162b576115b1828281518110611585577f4e487b7100000000000000000000000000000000000000000000000000000000600052603260045260246000fd5b01602001517fff0000000000000000000000000000000000000000000000000000000000000016611ee4565b8282815181106115ea577f4e487b7100000000000000000000000000000000000000000000000000000000600052603260045260246000fd5b60200101907effffffffffffffffffffffffffffffffffffffffffffffffffffffffffffff1916908160001a9053508061162381612cc7565b915050611540565b5092915050565b60007fffffffff0000000000000000000000000000000000000000000000000000000082167f780e9d6300000000000000000000000000000000000000000000000000000000148061056e575061056e82611f9b565b6000818152600360205260408120546001600160a01b03168061056e5760405162461bcd60e51b815260206004820152602960248201527f4552433732313a206f776e657220717565727920666f72206e6f6e657869737460448201527f656e7420746f6b656e0000000000000000000000000000000000000000000000606482015260840161068c565b600081815260056020526040902080547fffffffffffffffffffffffff0000000000000000000000000000000000000000166001600160a01b038416908117909155819061176082611688565b6001600160a01b03167f8c5be1e5ebec7d5bd14f71427d1e84f3dd0314c0f7b2291e5b200ac8c7c3b92560405160405180910390a45050565b600b54600c546040517f02571be3000000000000000000000000000000000000000000000000000000008152600481019190915260009130916001600160a01b03909116906302571be39060240160206040518083038186803b1580156117ff57600080fd5b505afa158015611813573d6000803e3d6000fd5b505050506040513d601f19601f8201168201806040525081019061183791906127f2565b6001600160a01b03161461184a57600080fd5b336000908152600d602052604090205460ff1661186657600080fd5b61186f85610e7e565b61187857600080fd5b6118856276a70042612be1565b6276a7006118938542612be1565b61189d9190612be1565b116118a757600080fd5b6118b18342612be1565b6000868152600e60209081526040808320939093556003905220546001600160a01b0316156118e3576118e38561207e565b6118ed848661213d565b811561199f57600b54600c546040517f06ab59230000000000000000000000000000000000000000000000000000000081526004810191909152602481018790526001600160a01b038681166044830152909116906306ab592390606401602060405180830381600087803b15801561196557600080fd5b505af1158015611979573d6000803e3d6000fd5b505050506040513d601f19601f8201168201806040525081019061199d91906129d9565b505b6001600160a01b038416857fb3d987963d01b2f68493b4bdb130988f157ea43070d4ad840fee0466ed9370d96119d58642612be1565b60405190815260200160405180910390a36119f08342612be1565b95945050505050565b600080611a0583610cbe565b9050806001600160a01b0316846001600160a01b03161480611a405750836001600160a01b0316611a3584610606565b6001600160a01b0316145b806107f257506001600160a01b0380821660009081526006602090815260408083209388168352929052205460ff166107f2565b826001600160a01b0316611a8782611688565b6001600160a01b031614611b035760405162461bcd60e51b815260206004820152602960248201527f4552433732313a207472616e73666572206f6620746f6b656e2074686174206960448201527f73206e6f74206f776e0000000000000000000000000000000000000000000000606482015260840161068c565b6001600160a01b038216611b7e5760405162461bcd60e51b8152602060048201526024808201527f4552433732313a207472616e7366657220746f20746865207a65726f2061646460448201527f7265737300000000000000000000000000000000000000000000000000000000606482015260840161068c565b611b898383836122a3565b611b94600082611713565b6001600160a01b0383166000908152600460205260408120805460019290611bbd908490612c0d565b90915550506001600160a01b0382166000908152600460205260408120805460019290611beb908490612be1565b909155505060008181526003602052604080822080547fffffffffffffffffffffffff0000000000000000000000000000000000000000166001600160a01b0386811691821790925591518493918716917fddf252ad1be2c89b69c2b068fc378daa952ba7f163c4a11628f55a4df523b3ef91a4505050565b600080546001600160a01b038381167fffffffffffffffffffffffff0000000000000000000000000000000000000000831681178455604051919092169283917f8be0079c531659141344cd1fd0a4f28419497f9722a3daafe3b4186f6b6457e09190a35050565b611cd7848484611a74565b611ce38484848461235b565b6110e05760405162461bcd60e51b815260206004820152603260248201527f4552433732313a207472616e7366657220746f206e6f6e20455243373231526560448201527f63656976657220696d706c656d656e7465720000000000000000000000000000606482015260840161068c565b6060600f805461058390612c73565b606081611da457505060408051808201909152600181527f3000000000000000000000000000000000000000000000000000000000000000602082015290565b8160005b8115611dce5780611db881612cc7565b9150611dc79050600a83612bf9565b9150611da8565b60008167ffffffffffffffff811115611e10577f4e487b7100000000000000000000000000000000000000000000000000000000600052604160045260246000fd5b6040519080825280601f01601f191660200182016040528015611e3a576020820181803683370190505b5090505b84156107f257611e4f600183612c0d565b9150611e5c600a86612d00565b611e67906030612be1565b60f81b818381518110611ea3577f4e487b7100000000000000000000000000000000000000000000000000000000600052603260045260246000fd5b60200101907effffffffffffffffffffffffffffffffffffffffffffffffffffffffffffff1916908160001a905350611edd600a86612bf9565b9450611e3e565b60007f61000000000000000000000000000000000000000000000000000000000000007fff00000000000000000000000000000000000000000000000000000000000000831610801590611f7a57507f7a000000000000000000000000000000000000000000000000000000000000007fff00000000000000000000000000000000000000000000000000000000000000831611155b15611f9757611f8e602060f884901c612c24565b60f81b92915050565b5090565b60007fffffffff0000000000000000000000000000000000000000000000000000000082167f80ac58cd00000000000000000000000000000000000000000000000000000000148061202e57507fffffffff0000000000000000000000000000000000000000000000000000000082167f5b5e139f00000000000000000000000000000000000000000000000000000000145b8061056e57507f01ffc9a7000000000000000000000000000000000000000000000000000000007fffffffff0000000000000000000000000000000000000000000000000000000083161461056e565b600061208982611688565b9050612097816000846122a3565b6120a2600083611713565b6001600160a01b03811660009081526004602052604081208054600192906120cb908490612c0d565b909155505060008281526003602052604080822080547fffffffffffffffffffffffff0000000000000000000000000000000000000000169055518391906001600160a01b038416907fddf252ad1be2c89b69c2b068fc378daa952ba7f163c4a11628f55a4df523b3ef908390a45050565b6001600160a01b0382166121935760405162461bcd60e51b815260206004820181905260248201527f4552433732313a206d696e7420746f20746865207a65726f2061646472657373604482015260640161068c565b6000818152600360205260409020546001600160a01b0316156121f85760405162461bcd60e51b815260206004820152601c60248201527f4552433732313a20746f6b656e20616c7265616479206d696e74656400000000604482015260640161068c565b612204600083836122a3565b6001600160a01b038216600090815260046020526040812080546001929061222d908490612be1565b909155505060008181526003602052604080822080547fffffffffffffffffffffffff0000000000000000000000000000000000000000166001600160a01b03861690811790915590518392907fddf252ad1be2c89b69c2b068fc378daa952ba7f163c4a11628f55a4df523b3ef908290a45050565b6001600160a01b0383166122fe576122f981600980546000838152600a60205260408120829055600182018355919091527f6e1540171b6c0c960b71a7020d9f60077f6af931a8bbf590da0223dacf75c7af0155565b612321565b816001600160a01b0316836001600160a01b031614612321576123218382612523565b6001600160a01b038216612338576107de816125c0565b826001600160a01b0316826001600160a01b0316146107de576107de82826126e4565b60006001600160a01b0384163b1561251b576040517f150b7a020000000000000000000000000000000000000000000000000000000081526001600160a01b0385169063150b7a02906123b8903390899088908890600401612b92565b602060405180830381600087803b1580156123d257600080fd5b505af1925050508015612420575060408051601f3d9081017fffffffffffffffffffffffffffffffffffffffffffffffffffffffffffffffe016820190925261241d91810190612a0d565b60015b6124d0573d80801561244e576040519150601f19603f3d011682016040523d82523d6000602084013e612453565b606091505b5080516124c85760405162461bcd60e51b815260206004820152603260248201527f4552433732313a207472616e7366657220746f206e6f6e20455243373231526560448201527f63656976657220696d706c656d656e7465720000000000000000000000000000606482015260840161068c565b805181602001fd5b7fffffffff00000000000000000000000000000000000000000000000000000000167f150b7a02000000000000000000000000000000000000000000000000000000001490506107f2565b5060016107f2565b6000600161253084610d6f565b61253a9190612c0d565b60008381526008602052604090205490915080821461258d576001600160a01b03841660009081526007602090815260408083208584528252808320548484528184208190558352600890915290208190555b5060009182526008602090815260408084208490556001600160a01b039094168352600781528383209183525290812055565b6009546000906125d290600190612c0d565b6000838152600a602052604081205460098054939450909284908110612621577f4e487b7100000000000000000000000000000000000000000000000000000000600052603260045260246000fd5b906000526020600020015490508060098381548110612669577f4e487b7100000000000000000000000000000000000000000000000000000000600052603260045260246000fd5b6000918252602080832090910192909255828152600a909152604080822084905585825281205560098054806126c8577f4e487b7100000000000000000000000000000000000000000000000000000000600052603160045260246000fd5b6001900381819060005260206000200160009055905550505050565b60006126ef83610d6f565b6001600160a01b039093166000908152600760209081526040808320868452825280832085905593825260089052919091209190915550565b82805461273490612c73565b90600052602060002090601f01602090048101928261275657600085556127ba565b82601f1061278d578280017fffffffffffffffffffffffffffffffffffffffffffffffffffffffffffffff008235161785556127ba565b828001600101855582156127ba579182015b828111156127ba57823582559160200191906001019061279f565b50611f979291505b80821115611f9757600081556001016127c2565b6000602082840312156127e7578081fd5b813561138181612da1565b600060208284031215612803578081fd5b815161138181612da1565b60008060408385031215612820578081fd5b823561282b81612da1565b9150602083013561283b81612da1565b809150509250929050565b60008060006060848603121561285a578081fd5b833561286581612da1565b9250602084013561287581612da1565b929592945050506040919091013590565b6000806000806080858703121561289b578081fd5b84356128a681612da1565b935060208501356128b681612da1565b925060408501359150606085013567ffffffffffffffff808211156128d9578283fd5b818701915087601f8301126128ec578283fd5b8135818111156128fe576128fe612d72565b604051601f82017fffffffffffffffffffffffffffffffffffffffffffffffffffffffffffffffe0908116603f0116810190838211818310171561294457612944612d72565b816040528281528a602084870101111561295c578586fd5b82602086016020830137918201602001949094529598949750929550505050565b6000806040838503121561298f578182fd5b823561299a81612da1565b91506020830135801515811461283b578182fd5b600080604083850312156129c0578182fd5b82356129cb81612da1565b946020939093013593505050565b6000602082840312156129ea578081fd5b5051919050565b600060208284031215612a02578081fd5b813561138181612db6565b600060208284031215612a1e578081fd5b815161138181612db6565b60008060208385031215612a3b578182fd5b823567ffffffffffffffff80821115612a52578384fd5b818501915085601f830112612a65578384fd5b813581811115612a73578485fd5b866020828501011115612a84578485fd5b60209290920196919550909350505050565b600060208284031215612aa7578081fd5b5035919050565b60008060408385031215612ac0578182fd5b82359150602083013561283b81612da1565b600080600060608486031215612ae6578283fd5b83359250602084013561287581612da1565b60008060408385031215612b0a578182fd5b50508035926020909101359150565b60008151808452612b31816020860160208601612c47565b601f017fffffffffffffffffffffffffffffffffffffffffffffffffffffffffffffffe0169290920160200192915050565b60008351612b75818460208801612c47565b835190830190612b89818360208801612c47565b01949350505050565b60006001600160a01b03808716835280861660208401525083604083015260806060830152612bc46080830184612b19565b9695505050505050565b6020815260006113816020830184612b19565b60008219821115612bf457612bf4612d14565b500190565b600082612c0857612c08612d43565b500490565b600082821015612c1f57612c1f612d14565b500390565b600060ff821660ff841680821015612c3e57612c3e612d14565b90039392505050565b60005b83811015612c62578181015183820152602001612c4a565b838111156110e05750506000910152565b600181811c90821680612c8757607f821691505b60208210811415612cc1577f4e487b7100000000000000000000000000000000000000000000000000000000600052602260045260246000fd5b50919050565b60007fffffffffffffffffffffffffffffffffffffffffffffffffffffffffffffffff821415612cf957612cf9612d14565b5060010190565b600082612d0f57612d0f612d43565b500690565b7f4e487b7100000000000000000000000000000000000000000000000000000000600052601160045260246000fd5b7f4e487b7100000000000000000000000000000000000000000000000000000000600052601260045260246000fd5b7f4e487b7100000000000000000000000000000000000000000000000000000000600052604160045260246000fd5b6001600160a01b038116811461146757600080fd5b7fffffffff000000000000000000000000000000000000000000000000000000008116811461146757600080fdfea264697066735822122011fad4e27cb183a609b2ae47d45be6feee4796c66e2e39d4c8e3e9b9489d427b64736f6c63430008040033"
}