{
  "address": "0x59759CBa6c20569275FAe1B895dcbadFABd4ca4c",
  "abi": [
    {
      "inputs": [
        {
          "internalType": "uint256",
          "name": "",
          "type": "uint256"
        }
      ],
      "name": "ownerOf",
      "outputs": [
        {
          "internalType": "address",
          "name": "",
          "type": "address"
        }
      ],
      "stateMutability": "view",
      "type": "function"
    }
  ],
  "transactionHash": "0x82d388494ea79a599cfa97b8f981479d9fd19ae6f9c97045d39d36abf40078de",
  "args": [],
  "bytecode": "0x608060405234801561001057600080fd5b5060b38061001f6000396000f3fe6080604052348015600f57600080fd5b506004361060285760003560e01c80636352211e14602d575b600080fd5b603d60383660046066565b503290565b60405173ffffffffffffffffffffffffffffffffffffffff909116815260200160405180910390f35b6000602082840312156076578081fd5b503591905056fea26469706673582212204976e870f9f35325063ec54c723259100d7e7904ac9f33cd760d8f5193732e2d64736f6c63430008040033"
}