{
  "address": "0xCf30C34fF52D8190802e00BedBBb41de4E808eFe",
  "abi": [
    {
      "inputs": [
        {
          "internalType": "uint256[]",
          "name": "_rentPrices",
          "type": "uint256[]"
        }
      ],
      "stateMutability": "nonpayable",
      "type": "constructor"
    },
    {
      "anonymous": false,
      "inputs": [
        {
          "indexed": true,
          "internalType": "address",
          "name": "previousOwner",
          "type": "address"
        },
        {
          "indexed": true,
          "internalType": "address",
          "name": "newOwner",
          "type": "address"
        }
      ],
      "name": "OwnershipTransferred",
      "type": "event"
    },
    {
      "anonymous": false,
      "inputs": [
        {
          "indexed": false,
          "internalType": "uint256[]",
          "name": "prices",
          "type": "uint256[]"
        }
      ],
      "name": "RentPriceChanged",
      "type": "event"
    },
    {
      "inputs": [],
      "name": "owner",
      "outputs": [
        {
          "internalType": "address",
          "name": "",
          "type": "address"
        }
      ],
      "stateMutability": "view",
      "type": "function"
    },
    {
      "inputs": [
        {
          "internalType": "string",
          "name": "name",
          "type": "string"
        },
        {
          "internalType": "uint256",
          "name": "expires",
          "type": "uint256"
        },
        {
          "internalType": "uint256",
          "name": "duration",
          "type": "uint256"
        }
      ],
      "name": "price",
      "outputs": [
        {
          "internalType": "uint256",
          "name": "",
          "type": "uint256"
        }
      ],
      "stateMutability": "view",
      "type": "function"
    },
    {
      "inputs": [],
      "name": "renounceOwnership",
      "outputs": [],
      "stateMutability": "nonpayable",
      "type": "function"
    },
    {
      "inputs": [
        {
          "internalType": "uint256",
          "name": "",
          "type": "uint256"
        }
      ],
      "name": "rentPrices",
      "outputs": [
        {
          "internalType": "uint256",
          "name": "",
          "type": "uint256"
        }
      ],
      "stateMutability": "view",
      "type": "function"
    },
    {
      "inputs": [
        {
          "internalType": "uint256[]",
          "name": "_rentPrices",
          "type": "uint256[]"
        }
      ],
      "name": "setPrices",
      "outputs": [],
      "stateMutability": "nonpayable",
      "type": "function"
    },
    {
      "inputs": [
        {
          "internalType": "bytes4",
          "name": "interfaceID",
          "type": "bytes4"
        }
      ],
      "name": "supportsInterface",
      "outputs": [
        {
          "internalType": "bool",
          "name": "",
          "type": "bool"
        }
      ],
      "stateMutability": "view",
      "type": "function"
    },
    {
      "inputs": [
        {
          "internalType": "address",
          "name": "newOwner",
          "type": "address"
        }
      ],
      "name": "transferOwnership",
      "outputs": [],
      "stateMutability": "nonpayable",
      "type": "function"
    }
  ],
  "transactionHash": "0x3143ecdb089a21e96cf4e74097b5752ae5604d662259e0ae245a8b4986b714ac",
  "args": [
    [
      "0"
    ]
  ],
  "bytecode": "0x60806040523480156200001157600080fd5b5060405162000f8938038062000f898339810160408190526200003491620001b9565b6200003f3362000051565b6200004a81620000a1565b50620002e0565b600080546001600160a01b038381166001600160a01b0319831681178455604051919092169283917f8be0079c531659141344cd1fd0a4f28419497f9722a3daafe3b4186f6b6457e09190a35050565b6000546001600160a01b03163314620001005760405162461bcd60e51b815260206004820181905260248201527f4f776e61626c653a2063616c6c6572206973206e6f7420746865206f776e6572604482015260640160405180910390fd5b80516200011590600190602084019062000152565b507f73422d94aedd596c2d4d39f27a01033adc390a9054efaf259afefd95ef7331df8160405162000147919062000284565b60405180910390a150565b82805482825590600052602060002090810192821562000190579160200282015b828111156200019057825182559160200191906001019062000173565b506200019e929150620001a2565b5090565b5b808211156200019e5760008155600101620001a3565b60006020808385031215620001cc578182fd5b82516001600160401b0380821115620001e3578384fd5b818501915085601f830112620001f7578384fd5b8151818111156200020c576200020c620002ca565b8060051b604051601f19603f83011681018181108582111715620002345762000234620002ca565b604052828152858101935084860182860187018a101562000253578788fd5b8795505b838610156200027757805185526001959095019493860193860162000257565b5098975050505050505050565b6020808252825182820181905260009190848201906040850190845b81811015620002be57835183529284019291840191600101620002a0565b50909695505050505050565b634e487b7160e01b600052604160045260246000fd5b610c9980620002f06000396000f3fe608060405234801561001057600080fd5b506004361061007d5760003560e01c8063715018a61161005b578063715018a6146100de57806379cf92d3146100e85780638da5cb5b146100fb578063f2fde38b1461012357600080fd5b806301ffc9a71461008257806306d5d0b6146100aa57806350e9a715146100cb575b600080fd5b610095610090366004610a11565b610136565b60405190151581526020015b60405180910390f35b6100bd6100b8366004610acb565b6101cf565b6040519081526020016100a1565b6100bd6100d9366004610a51565b6101f0565b6100e661030d565b005b6100e66100f6366004610933565b61039f565b60005460405173ffffffffffffffffffffffffffffffffffffffff90911681526020016100a1565b6100e66101313660046108ff565b61046e565b60007fffffffff0000000000000000000000000000000000000000000000000000000082167f01ffc9a70000000000000000000000000000000000000000000000000000000014806101c957507fffffffff0000000000000000000000000000000000000000000000000000000082167ff3a7928300000000000000000000000000000000000000000000000000000000145b92915050565b600181815481106101df57600080fd5b600091825260209091200154905081565b60008061023286868080601f01602080910402602001604051908101604052809392919081815260200183838082843760009201919091525061059e92505050565b60015490915081111561024457506001545b6000811161025157600080fd5b60006102b38460016102638186610bb5565b8154811061029a577f4e487b7100000000000000000000000000000000000000000000000000000000600052603260045260246000fd5b90600052602060002001546107cc90919063ffffffff16565b90506103026102fb88888080601f0160208091040260200160405190810160405280939291908181526020018383808284376000920191909152508a92508991506108059050565b829061080e565b979650505050505050565b60005473ffffffffffffffffffffffffffffffffffffffff163314610393576040517f08c379a000000000000000000000000000000000000000000000000000000000815260206004820181905260248201527f4f776e61626c653a2063616c6c6572206973206e6f7420746865206f776e657260448201526064015b60405180910390fd5b61039d600061082a565b565b60005473ffffffffffffffffffffffffffffffffffffffff163314610420576040517f08c379a000000000000000000000000000000000000000000000000000000000815260206004820181905260248201527f4f776e61626c653a2063616c6c6572206973206e6f7420746865206f776e6572604482015260640161038a565b805161043390600190602084019061089f565b507f73422d94aedd596c2d4d39f27a01033adc390a9054efaf259afefd95ef7331df816040516104639190610ae3565b60405180910390a150565b60005473ffffffffffffffffffffffffffffffffffffffff1633146104ef576040517f08c379a000000000000000000000000000000000000000000000000000000000815260206004820181905260248201527f4f776e61626c653a2063616c6c6572206973206e6f7420746865206f776e6572604482015260640161038a565b73ffffffffffffffffffffffffffffffffffffffff8116610592576040517f08c379a000000000000000000000000000000000000000000000000000000000815260206004820152602660248201527f4f776e61626c653a206e6577206f776e657220697320746865207a65726f206160448201527f6464726573730000000000000000000000000000000000000000000000000000606482015260840161038a565b61059b8161082a565b50565b8051600090819081905b808210156107c35760008583815181106105eb577f4e487b7100000000000000000000000000000000000000000000000000000000600052603260045260246000fd5b01602001517fff000000000000000000000000000000000000000000000000000000000000001690507f800000000000000000000000000000000000000000000000000000000000000081101561064e57610647600184610b27565b92506107b0565b7fe0000000000000000000000000000000000000000000000000000000000000007fff00000000000000000000000000000000000000000000000000000000000000821610156106a357610647600284610b27565b7ff0000000000000000000000000000000000000000000000000000000000000007fff00000000000000000000000000000000000000000000000000000000000000821610156106f857610647600384610b27565b7ff8000000000000000000000000000000000000000000000000000000000000007fff000000000000000000000000000000000000000000000000000000000000008216101561074d57610647600484610b27565b7ffc000000000000000000000000000000000000000000000000000000000000007fff00000000000000000000000000000000000000000000000000000000000000821610156107a257610647600584610b27565b6107ad600684610b27565b92505b50826107bb81610bcc565b9350506105a8565b50909392505050565b6000826107db575060006101c9565b60006107e78385610b78565b9050826107f48583610b3f565b146107fe57600080fd5b9392505050565b60009392505050565b60008061081b8385610b27565b9050838110156107fe57600080fd5b6000805473ffffffffffffffffffffffffffffffffffffffff8381167fffffffffffffffffffffffff0000000000000000000000000000000000000000831681178455604051919092169283917f8be0079c531659141344cd1fd0a4f28419497f9722a3daafe3b4186f6b6457e09190a35050565b8280548282559060005260206000209081019282156108da579160200282015b828111156108da5782518255916020019190600101906108bf565b506108e69291506108ea565b5090565b5b808211156108e657600081556001016108eb565b600060208284031215610910578081fd5b813573ffffffffffffffffffffffffffffffffffffffff811681146107fe578182fd5b60006020808385031215610945578182fd5b823567ffffffffffffffff8082111561095c578384fd5b818501915085601f83011261096f578384fd5b81358181111561098157610981610c34565b8060051b6040517fffffffffffffffffffffffffffffffffffffffffffffffffffffffffffffffe0603f830116810181811085821117156109c4576109c4610c34565b604052828152858101935084860182860187018a10156109e2578788fd5b8795505b83861015610a045780358552600195909501949386019386016109e6565b5098975050505050505050565b600060208284031215610a22578081fd5b81357fffffffff00000000000000000000000000000000000000000000000000000000811681146107fe578182fd5b60008060008060608587031215610a66578283fd5b843567ffffffffffffffff80821115610a7d578485fd5b818701915087601f830112610a90578485fd5b813581811115610a9e578586fd5b886020828501011115610aaf578586fd5b6020928301999098509187013596604001359550909350505050565b600060208284031215610adc578081fd5b5035919050565b6020808252825182820181905260009190848201906040850190845b81811015610b1b57835183529284019291840191600101610aff565b50909695505050505050565b60008219821115610b3a57610b3a610c05565b500190565b600082610b73577f4e487b710000000000000000000000000000000000000000000000000000000081526012600452602481fd5b500490565b6000817fffffffffffffffffffffffffffffffffffffffffffffffffffffffffffffffff0483118215151615610bb057610bb0610c05565b500290565b600082821015610bc757610bc7610c05565b500390565b60007fffffffffffffffffffffffffffffffffffffffffffffffffffffffffffffffff821415610bfe57610bfe610c05565b5060010190565b7f4e487b7100000000000000000000000000000000000000000000000000000000600052601160045260246000fd5b7f4e487b7100000000000000000000000000000000000000000000000000000000600052604160045260246000fdfea26469706673582212206cc288fe9e3789b81862a474c5787b0ecc821428301098acf740f22390c7295d64736f6c63430008040033"
}