{
  "address": "0x8257c4233B6b6e4Ee077b7585722166CBD8A5D6d",
  "abi": [
    {
      "inputs": [
        {
          "internalType": "contract BaseRegistrarImplementation",
          "name": "_base",
          "type": "address"
        },
        {
          "internalType": "contract PriceOracle",
          "name": "_prices",
          "type": "address"
        },
        {
          "internalType": "uint256",
          "name": "_minCommitmentAge",
          "type": "uint256"
        },
        {
          "internalType": "uint256",
          "name": "_maxCommitmentAge",
          "type": "uint256"
        }
      ],
      "stateMutability": "nonpayable",
      "type": "constructor"
    },
    {
      "anonymous": false,
      "inputs": [
        {
          "indexed": false,
          "internalType": "string",
          "name": "name",
          "type": "string"
        },
        {
          "indexed": true,
          "internalType": "bytes32",
          "name": "label",
          "type": "bytes32"
        },
        {
          "indexed": true,
          "internalType": "address",
          "name": "owner",
          "type": "address"
        },
        {
          "indexed": false,
          "internalType": "uint256",
          "name": "cost",
          "type": "uint256"
        },
        {
          "indexed": false,
          "internalType": "uint256",
          "name": "expires",
          "type": "uint256"
        }
      ],
      "name": "NameRegistered",
      "type": "event"
    },
    {
      "anonymous": false,
      "inputs": [
        {
          "indexed": false,
          "internalType": "string",
          "name": "name",
          "type": "string"
        },
        {
          "indexed": true,
          "internalType": "bytes32",
          "name": "label",
          "type": "bytes32"
        },
        {
          "indexed": false,
          "internalType": "uint256",
          "name": "cost",
          "type": "uint256"
        },
        {
          "indexed": false,
          "internalType": "uint256",
          "name": "expires",
          "type": "uint256"
        }
      ],
      "name": "NameRenewed",
      "type": "event"
    },
    {
      "anonymous": false,
      "inputs": [
        {
          "indexed": true,
          "internalType": "address",
          "name": "oracle",
          "type": "address"
        }
      ],
      "name": "NewPriceOracle",
      "type": "event"
    },
    {
      "anonymous": false,
      "inputs": [
        {
          "indexed": true,
          "internalType": "address",
          "name": "previousOwner",
          "type": "address"
        },
        {
          "indexed": true,
          "internalType": "address",
          "name": "newOwner",
          "type": "address"
        }
      ],
      "name": "OwnershipTransferred",
      "type": "event"
    },
    {
      "inputs": [],
      "name": "MIN_REGISTRATION_DURATION",
      "outputs": [
        {
          "internalType": "uint256",
          "name": "",
          "type": "uint256"
        }
      ],
      "stateMutability": "view",
      "type": "function"
    },
    {
      "inputs": [
        {
          "internalType": "string",
          "name": "name",
          "type": "string"
        }
      ],
      "name": "available",
      "outputs": [
        {
          "internalType": "bool",
          "name": "",
          "type": "bool"
        }
      ],
      "stateMutability": "view",
      "type": "function"
    },
    {
      "inputs": [
        {
          "internalType": "bytes32",
          "name": "commitment",
          "type": "bytes32"
        }
      ],
      "name": "commit",
      "outputs": [],
      "stateMutability": "nonpayable",
      "type": "function"
    },
    {
      "inputs": [
        {
          "internalType": "bytes32",
          "name": "",
          "type": "bytes32"
        }
      ],
      "name": "commitments",
      "outputs": [
        {
          "internalType": "uint256",
          "name": "",
          "type": "uint256"
        }
      ],
      "stateMutability": "view",
      "type": "function"
    },
    {
      "inputs": [
        {
          "internalType": "string",
          "name": "name",
          "type": "string"
        },
        {
          "internalType": "address",
          "name": "owner",
          "type": "address"
        },
        {
          "internalType": "bytes32",
          "name": "secret",
          "type": "bytes32"
        }
      ],
      "name": "makeCommitment",
      "outputs": [
        {
          "internalType": "bytes32",
          "name": "",
          "type": "bytes32"
        }
      ],
      "stateMutability": "pure",
      "type": "function"
    },
    {
      "inputs": [
        {
          "internalType": "string",
          "name": "name",
          "type": "string"
        },
        {
          "internalType": "address",
          "name": "owner",
          "type": "address"
        },
        {
          "internalType": "bytes32",
          "name": "secret",
          "type": "bytes32"
        },
        {
          "internalType": "address",
          "name": "resolver",
          "type": "address"
        },
        {
          "internalType": "address",
          "name": "addr",
          "type": "address"
        }
      ],
      "name": "makeCommitmentWithConfig",
      "outputs": [
        {
          "internalType": "bytes32",
          "name": "",
          "type": "bytes32"
        }
      ],
      "stateMutability": "pure",
      "type": "function"
    },
    {
      "inputs": [],
      "name": "maxCommitmentAge",
      "outputs": [
        {
          "internalType": "uint256",
          "name": "",
          "type": "uint256"
        }
      ],
      "stateMutability": "view",
      "type": "function"
    },
    {
      "inputs": [],
      "name": "minCommitmentAge",
      "outputs": [
        {
          "internalType": "uint256",
          "name": "",
          "type": "uint256"
        }
      ],
      "stateMutability": "view",
      "type": "function"
    },
    {
      "inputs": [],
      "name": "owner",
      "outputs": [
        {
          "internalType": "address",
          "name": "",
          "type": "address"
        }
      ],
      "stateMutability": "view",
      "type": "function"
    },
    {
      "inputs": [
        {
          "internalType": "string",
          "name": "name",
          "type": "string"
        },
        {
          "internalType": "address",
          "name": "owner",
          "type": "address"
        },
        {
          "internalType": "uint256",
          "name": "duration",
          "type": "uint256"
        },
        {
          "internalType": "bytes32",
          "name": "secret",
          "type": "bytes32"
        }
      ],
      "name": "register",
      "outputs": [],
      "stateMutability": "payable",
      "type": "function"
    },
    {
      "inputs": [
        {
          "internalType": "string",
          "name": "name",
          "type": "string"
        },
        {
          "internalType": "address",
          "name": "owner",
          "type": "address"
        },
        {
          "internalType": "uint256",
          "name": "duration",
          "type": "uint256"
        },
        {
          "internalType": "bytes32",
          "name": "secret",
          "type": "bytes32"
        },
        {
          "internalType": "address",
          "name": "resolver",
          "type": "address"
        },
        {
          "internalType": "address",
          "name": "addr",
          "type": "address"
        }
      ],
      "name": "registerWithConfig",
      "outputs": [],
      "stateMutability": "payable",
      "type": "function"
    },
    {
      "inputs": [
        {
          "internalType": "string",
          "name": "name",
          "type": "string"
        },
        {
          "internalType": "uint256",
          "name": "duration",
          "type": "uint256"
        }
      ],
      "name": "renew",
      "outputs": [],
      "stateMutability": "payable",
      "type": "function"
    },
    {
      "inputs": [],
      "name": "renounceOwnership",
      "outputs": [],
      "stateMutability": "nonpayable",
      "type": "function"
    },
    {
      "inputs": [
        {
          "internalType": "string",
          "name": "name",
          "type": "string"
        },
        {
          "internalType": "uint256",
          "name": "duration",
          "type": "uint256"
        }
      ],
      "name": "rentPrice",
      "outputs": [
        {
          "internalType": "uint256",
          "name": "",
          "type": "uint256"
        }
      ],
      "stateMutability": "view",
      "type": "function"
    },
    {
      "inputs": [
        {
          "internalType": "uint256",
          "name": "_minCommitmentAge",
          "type": "uint256"
        },
        {
          "internalType": "uint256",
          "name": "_maxCommitmentAge",
          "type": "uint256"
        }
      ],
      "name": "setCommitmentAges",
      "outputs": [],
      "stateMutability": "nonpayable",
      "type": "function"
    },
    {
      "inputs": [
        {
          "internalType": "contract PriceOracle",
          "name": "_prices",
          "type": "address"
        }
      ],
      "name": "setPriceOracle",
      "outputs": [],
      "stateMutability": "nonpayable",
      "type": "function"
    },
    {
      "inputs": [
        {
          "internalType": "bytes4",
          "name": "interfaceID",
          "type": "bytes4"
        }
      ],
      "name": "supportsInterface",
      "outputs": [
        {
          "internalType": "bool",
          "name": "",
          "type": "bool"
        }
      ],
      "stateMutability": "pure",
      "type": "function"
    },
    {
      "inputs": [
        {
          "internalType": "address",
          "name": "newOwner",
          "type": "address"
        }
      ],
      "name": "transferOwnership",
      "outputs": [],
      "stateMutability": "nonpayable",
      "type": "function"
    },
    {
      "inputs": [
        {
          "internalType": "string",
          "name": "name",
          "type": "string"
        }
      ],
      "name": "valid",
      "outputs": [
        {
          "internalType": "bool",
          "name": "",
          "type": "bool"
        }
      ],
      "stateMutability": "pure",
      "type": "function"
    },
    {
      "inputs": [],
      "name": "withdraw",
      "outputs": [],
      "stateMutability": "nonpayable",
      "type": "function"
    }
  ],
  "transactionHash": "0xf55f5e735165e374e5623114634e0660309f02e465136679a2fb42fa42f461ff",
  "args": [
    "0xdAb6078E81e73390a0b7a76FCc8542DF766E7c70",
    "0x78e958cCAd79BE9e98a2417847fA2Bb56762F42F",
    0,
    86400
  ],
  "bytecode": "0x60806040523480156200001157600080fd5b5060405162001f0538038062001f058339810160408190526200003491620000db565b6200003f336200008b565b8181116200004c57600080fd5b600180546001600160a01b039586166001600160a01b031991821617909155600280549490951693169290921790925560039190915560045562000140565b600080546001600160a01b038381166001600160a01b0319831681178455604051919092169283917f8be0079c531659141344cd1fd0a4f28419497f9722a3daafe3b4186f6b6457e09190a35050565b60008060008060808587031215620000f1578384fd5b8451620000fe8162000127565b6020860151909450620001118162000127565b6040860151606090960151949790965092505050565b6001600160a01b03811681146200013d57600080fd5b50565b611db580620001506000396000f3fe60806040526004361061015f5760003560e01c80638d839ffe116100c0578063ce1e09c011610074578063f2fde38b11610059578063f2fde38b1461037e578063f49826be1461039e578063f7a16963146103be57600080fd5b8063ce1e09c014610348578063f14fcbc81461035e57600080fd5b80639791c097116100a55780639791c097146102f5578063acf1a84114610315578063aeb8ce9b1461032857600080fd5b80638d839ffe146102aa5780638da5cb5b146102c057600080fd5b80637e3244791161011757806383e7f6ff116100fc57806383e7f6ff1461026057806385f6d155146102805780638a95b09f1461029357600080fd5b80637e32447914610213578063839df9451461023357600080fd5b80633d86c52f116101485780633d86c52f146101b0578063530e784f146101de578063715018a6146101fe57600080fd5b806301ffc9a7146101645780633ccfd60b14610199575b600080fd5b34801561017057600080fd5b5061018461017f3660046118a9565b6103d1565b60405190151581526020015b60405180910390f35b3480156101a557600080fd5b506101ae6104b6565b005b3480156101bc57600080fd5b506101d06101cb366004611a3f565b610500565b604051908152602001610190565b3480156101ea57600080fd5b506101ae6101f936600461183d565b610645565b34801561020a57600080fd5b506101ae61073a565b34801561021f57600080fd5b506101ae61022e366004611b88565b6107c7565b34801561023f57600080fd5b506101d061024e366004611879565b60056020526000908152604090205481565b34801561026c57600080fd5b506101d061027b366004611b45565b610853565b6101ae61028e366004611905565b610986565b34801561029f57600080fd5b506101d06224ea0081565b3480156102b657600080fd5b506101d060035481565b3480156102cc57600080fd5b5060005460405173ffffffffffffffffffffffffffffffffffffffff9091168152602001610190565b34801561030157600080fd5b506101846103103660046119b4565b6109d1565b6101ae61032336600461196a565b6109e6565b34801561033457600080fd5b506101846103433660046119b4565b610b89565b34801561035457600080fd5b506101d060045481565b34801561036a57600080fd5b506101ae610379366004611879565b610c4c565b34801561038a57600080fd5b506101ae61039936600461183d565b610c86565b3480156103aa57600080fd5b506101d06103b93660046119e7565b610db3565b6101ae6103cc366004611abe565b610dc3565b60007fffffffff0000000000000000000000000000000000000000000000000000000082167f01ffc9a700000000000000000000000000000000000000000000000000000000148061046457507fffffffff0000000000000000000000000000000000000000000000000000000082167f018fac0600000000000000000000000000000000000000000000000000000000145b806104b057507fffffffff0000000000000000000000000000000000000000000000000000000082167fca27ac4c00000000000000000000000000000000000000000000000000000000145b92915050565b6000805460405173ffffffffffffffffffffffffffffffffffffffff909116914780156108fc02929091818181858888f193505050501580156104fd573d6000803e3d6000fd5b50565b8451602086012060009073ffffffffffffffffffffffffffffffffffffffff8416158015610542575073ffffffffffffffffffffffffffffffffffffffff8316155b156105a85760408051602081018390527fffffffffffffffffffffffffffffffffffffffff000000000000000000000000606089901b1691810191909152605481018690526074016040516020818303038152906040528051906020012091505061063c565b73ffffffffffffffffffffffffffffffffffffffff84166105c857600080fd5b60408051602081018390527fffffffffffffffffffffffffffffffffffffffff000000000000000000000000606089811b82169383019390935286831b811660548301529185901b9091166068820152607c8101869052609c01604051602081830303815290604052805190602001209150505b95945050505050565b60005473ffffffffffffffffffffffffffffffffffffffff1633146106cb576040517f08c379a000000000000000000000000000000000000000000000000000000000815260206004820181905260248201527f4f776e61626c653a2063616c6c6572206973206e6f7420746865206f776e657260448201526064015b60405180910390fd5b600280547fffffffffffffffffffffffff00000000000000000000000000000000000000001673ffffffffffffffffffffffffffffffffffffffff83169081179091556040517ff261845a790fe29bbd6631e2ca4a5bdc83e6eed7c3271d9590d97287e00e912390600090a250565b60005473ffffffffffffffffffffffffffffffffffffffff1633146107bb576040517f08c379a000000000000000000000000000000000000000000000000000000000815260206004820181905260248201527f4f776e61626c653a2063616c6c6572206973206e6f7420746865206f776e657260448201526064016106c2565b6107c56000611410565b565b60005473ffffffffffffffffffffffffffffffffffffffff163314610848576040517f08c379a000000000000000000000000000000000000000000000000000000000815260206004820181905260248201527f4f776e61626c653a2063616c6c6572206973206e6f7420746865206f776e657260448201526064016106c2565b600391909155600455565b815160208301206002546001546040517fd6e4fa86000000000000000000000000000000000000000000000000000000008152600481018490526000939273ffffffffffffffffffffffffffffffffffffffff908116926350e9a7159288929091169063d6e4fa869060240160206040518083038186803b1580156108d757600080fd5b505afa1580156108eb573d6000803e3d6000fd5b505050506040513d601f19601f8201168201806040525081019061090f9190611891565b866040518463ffffffff1660e01b815260040161092e93929190611c16565b60206040518083038186803b15801561094657600080fd5b505afa15801561095a573d6000803e3d6000fd5b505050506040513d601f19601f8201168201806040525081019061097e9190611891565b949350505050565b6109ca85858080601f016020809104026020016040519081016040528093929190818152602001838380828437600092018290525088935087925086915080610dc3565b5050505050565b600060016109de83611485565b101592915050565b6000610a2984848080601f016020809104026020016040519081016040528093929190818152602001838380828437600092019190915250869250610853915050565b905080341015610a3857600080fd5b60008484604051610a4a929190611ba9565b6040519081900381206001547fc475abff000000000000000000000000000000000000000000000000000000008352600483018290526024830186905290925060009173ffffffffffffffffffffffffffffffffffffffff9091169063c475abff90604401602060405180830381600087803b158015610ac957600080fd5b505af1158015610add573d6000803e3d6000fd5b505050506040513d601f19601f82011682018060405250810190610b019190611891565b905082341115610b4357336108fc610b198534611caf565b6040518115909202916000818181858888f19350505050158015610b41573d6000803e3d6000fd5b505b817f3da24c024582931cfaf8267d8ed24d13a82a8068d5bd337d30ec45cea4e506ae87878685604051610b799493929190611bb9565b60405180910390a2505050505050565b80516020820120600090610b9c836109d1565b8015610c4557506001546040517f96e494e80000000000000000000000000000000000000000000000000000000081526004810183905273ffffffffffffffffffffffffffffffffffffffff909116906396e494e89060240160206040518083038186803b158015610c0d57600080fd5b505afa158015610c21573d6000803e3d6000fd5b505050506040513d601f19601f82011682018060405250810190610c459190611859565b9392505050565b6004546000828152600560205260409020544291610c6991611c97565b10610c7357600080fd5b6000908152600560205260409020429055565b60005473ffffffffffffffffffffffffffffffffffffffff163314610d07576040517f08c379a000000000000000000000000000000000000000000000000000000000815260206004820181905260248201527f4f776e61626c653a2063616c6c6572206973206e6f7420746865206f776e657260448201526064016106c2565b73ffffffffffffffffffffffffffffffffffffffff8116610daa576040517f08c379a000000000000000000000000000000000000000000000000000000000815260206004820152602660248201527f4f776e61626c653a206e6577206f776e657220697320746865207a65726f206160448201527f646472657373000000000000000000000000000000000000000000000000000060648201526084016106c2565b6104fd81611410565b600061097e848484600080610500565b6000610dd28787868686610500565b90506000610de18887846116b3565b885160208a012090915080600073ffffffffffffffffffffffffffffffffffffffff871615611299576001546040517ffca247ac00000000000000000000000000000000000000000000000000000000815260048101849052306024820152604481018b905273ffffffffffffffffffffffffffffffffffffffff9091169063fca247ac90606401602060405180830381600087803b158015610e8357600080fd5b505af1158015610e97573d6000803e3d6000fd5b505050506040513d601f19601f82011682018060405250810190610ebb9190611891565b90506000600160009054906101000a900473ffffffffffffffffffffffffffffffffffffffff1673ffffffffffffffffffffffffffffffffffffffff1663ddf7fcb06040518163ffffffff1660e01b815260040160206040518083038186803b158015610f2757600080fd5b505afa158015610f3b573d6000803e3d6000fd5b505050506040513d601f19601f82011682018060405250810190610f5f9190611891565b6040805160208101929092528101859052606001604080517fffffffffffffffffffffffffffffffffffffffffffffffffffffffffffffffe081840301815282825280516020918201206001547f3f15457f000000000000000000000000000000000000000000000000000000008552925190945073ffffffffffffffffffffffffffffffffffffffff90921692633f15457f9260048083019392829003018186803b15801561100e57600080fd5b505afa158015611022573d6000803e3d6000fd5b505050506040513d601f19601f8201168201806040525081019061104691906118e9565b6040517f1896f70a0000000000000000000000000000000000000000000000000000000081526004810183905273ffffffffffffffffffffffffffffffffffffffff8a811660248301529190911690631896f70a90604401600060405180830381600087803b1580156110b857600080fd5b505af11580156110cc573d6000803e3d6000fd5b5050505073ffffffffffffffffffffffffffffffffffffffff871615611175576040517fd5fa2b000000000000000000000000000000000000000000000000000000000081526004810182905273ffffffffffffffffffffffffffffffffffffffff888116602483015289169063d5fa2b0090604401600060405180830381600087803b15801561115c57600080fd5b505af1158015611170573d6000803e3d6000fd5b505050505b6001546040517f28ed4f6c0000000000000000000000000000000000000000000000000000000081526004810185905273ffffffffffffffffffffffffffffffffffffffff8d81166024830152909116906328ed4f6c90604401600060405180830381600087803b1580156111e957600080fd5b505af11580156111fd573d6000803e3d6000fd5b50506001546040517f23b872dd00000000000000000000000000000000000000000000000000000000815230600482015273ffffffffffffffffffffffffffffffffffffffff8f811660248301526044820188905290911692506323b872dd9150606401600060405180830381600087803b15801561127b57600080fd5b505af115801561128f573d6000803e3d6000fd5b5050505050611370565b73ffffffffffffffffffffffffffffffffffffffff8616156112ba57600080fd5b6001546040517ffca247ac0000000000000000000000000000000000000000000000000000000081526004810184905273ffffffffffffffffffffffffffffffffffffffff8c81166024830152604482018c90529091169063fca247ac90606401602060405180830381600087803b15801561133557600080fd5b505af1158015611349573d6000803e3d6000fd5b505050506040513d601f19601f8201168201806040525081019061136d9190611891565b90505b8973ffffffffffffffffffffffffffffffffffffffff16837fca6abbe9d7f11422cb6ca7629fbf6fe9efb1c621f71ce8f02b9f2a230097404f8d87856040516113bb93929190611c16565b60405180910390a38334111561140357336108fc6113d98634611caf565b6040518115909202916000818181858888f19350505050158015611401573d6000803e3d6000fd5b505b5050505050505050505050565b6000805473ffffffffffffffffffffffffffffffffffffffff8381167fffffffffffffffffffffffff0000000000000000000000000000000000000000831681178455604051919092169283917f8be0079c531659141344cd1fd0a4f28419497f9722a3daafe3b4186f6b6457e09190a35050565b8051600090819081905b808210156116aa5760008583815181106114d2577f4e487b7100000000000000000000000000000000000000000000000000000000600052603260045260246000fd5b01602001517fff000000000000000000000000000000000000000000000000000000000000001690507f80000000000000000000000000000000000000000000000000000000000000008110156115355761152e600184611c97565b9250611697565b7fe0000000000000000000000000000000000000000000000000000000000000007fff000000000000000000000000000000000000000000000000000000000000008216101561158a5761152e600284611c97565b7ff0000000000000000000000000000000000000000000000000000000000000007fff00000000000000000000000000000000000000000000000000000000000000821610156115df5761152e600384611c97565b7ff8000000000000000000000000000000000000000000000000000000000000007fff00000000000000000000000000000000000000000000000000000000000000821610156116345761152e600484611c97565b7ffc000000000000000000000000000000000000000000000000000000000000007fff00000000000000000000000000000000000000000000000000000000000000821610156116895761152e600584611c97565b611694600684611c97565b92505b50826116a281611cc6565b93505061148f565b50909392505050565b600354600082815260056020526040812054909142916116d39190611c97565b11156116de57600080fd5b60045460008381526005602052604090205442916116fb91611c97565b1161170557600080fd5b61170e84610b89565b61171757600080fd5b60008281526005602052604081208190556117328585610853565b90506224ea0084101561174457600080fd5b8034101561097e57600080fd5b60008083601f840112611762578182fd5b50813567ffffffffffffffff811115611779578182fd5b60208301915083602082850101111561179157600080fd5b9250929050565b600082601f8301126117a8578081fd5b813567ffffffffffffffff808211156117c3576117c3611d2e565b604051601f83017fffffffffffffffffffffffffffffffffffffffffffffffffffffffffffffffe0908116603f0116810190828211818310171561180957611809611d2e565b81604052838152866020858801011115611821578485fd5b8360208701602083013792830160200193909352509392505050565b60006020828403121561184e578081fd5b8135610c4581611d5d565b60006020828403121561186a578081fd5b81518015158114610c45578182fd5b60006020828403121561188a578081fd5b5035919050565b6000602082840312156118a2578081fd5b5051919050565b6000602082840312156118ba578081fd5b81357fffffffff0000000000000000000000000000000000000000000000000000000081168114610c45578182fd5b6000602082840312156118fa578081fd5b8151610c4581611d5d565b60008060008060006080868803121561191c578081fd5b853567ffffffffffffffff811115611932578182fd5b61193e88828901611751565b909650945050602086013561195281611d5d565b94979396509394604081013594506060013592915050565b60008060006040848603121561197e578283fd5b833567ffffffffffffffff811115611994578384fd5b6119a086828701611751565b909790965060209590950135949350505050565b6000602082840312156119c5578081fd5b813567ffffffffffffffff8111156119db578182fd5b61097e84828501611798565b6000806000606084860312156119fb578283fd5b833567ffffffffffffffff811115611a11578384fd5b611a1d86828701611798565b9350506020840135611a2e81611d5d565b929592945050506040919091013590565b600080600080600060a08688031215611a56578081fd5b853567ffffffffffffffff811115611a6c578182fd5b611a7888828901611798565b9550506020860135611a8981611d5d565b9350604086013592506060860135611aa081611d5d565b91506080860135611ab081611d5d565b809150509295509295909350565b60008060008060008060c08789031215611ad6578384fd5b863567ffffffffffffffff811115611aec578485fd5b611af889828a01611798565b9650506020870135611b0981611d5d565b945060408701359350606087013592506080870135611b2781611d5d565b915060a0870135611b3781611d5d565b809150509295509295509295565b60008060408385031215611b57578182fd5b823567ffffffffffffffff811115611b6d578283fd5b611b7985828601611798565b95602094909401359450505050565b60008060408385031215611b9a578182fd5b50508035926020909101359150565b8183823760009101908152919050565b60608152836060820152838560808301376000806080868401015260807fffffffffffffffffffffffffffffffffffffffffffffffffffffffffffffffe0601f870116830101905083602083015282604083015295945050505050565b6060815260008451806060840152815b81811015611c435760208188018101516080868401015201611c26565b81811115611c545782608083860101525b5060807fffffffffffffffffffffffffffffffffffffffffffffffffffffffffffffffe0601f830116840101915050836020830152826040830152949350505050565b60008219821115611caa57611caa611cff565b500190565b600082821015611cc157611cc1611cff565b500390565b60007fffffffffffffffffffffffffffffffffffffffffffffffffffffffffffffffff821415611cf857611cf8611cff565b5060010190565b7f4e487b7100000000000000000000000000000000000000000000000000000000600052601160045260246000fd5b7f4e487b7100000000000000000000000000000000000000000000000000000000600052604160045260246000fd5b73ffffffffffffffffffffffffffffffffffffffff811681146104fd57600080fdfea2646970667358221220428cd2be09e75d63f7937a03e442074fdadc4423f90cdf24452d411be47d974464736f6c63430008040033"
}