{
  "address": "0x1Ba19b976feFC1C9c684F2B821E494A380f45A0f",
  "abi": [
    {
      "inputs": [
        {
          "internalType": "contract ENS",
          "name": "_ens",
          "type": "address"
        },
        {
          "internalType": "contract INameWrapper",
          "name": "wrapperAddress",
          "type": "address"
        }
      ],
      "stateMutability": "nonpayable",
      "type": "constructor"
    },
    {
      "anonymous": false,
      "inputs": [
        {
          "indexed": true,
          "internalType": "bytes32",
          "name": "node",
          "type": "bytes32"
        },
        {
          "indexed": true,
          "internalType": "uint256",
          "name": "contentType",
          "type": "uint256"
        }
      ],
      "name": "ABIChanged",
      "type": "event"
    },
    {
      "anonymous": false,
      "inputs": [
        {
          "indexed": true,
          "internalType": "bytes32",
          "name": "node",
          "type": "bytes32"
        },
        {
          "indexed": false,
          "internalType": "address",
          "name": "a",
          "type": "address"
        }
      ],
      "name": "AddrChanged",
      "type": "event"
    },
    {
      "anonymous": false,
      "inputs": [
        {
          "indexed": true,
          "internalType": "bytes32",
          "name": "node",
          "type": "bytes32"
        },
        {
          "indexed": false,
          "internalType": "uint256",
          "name": "coinType",
          "type": "uint256"
        },
        {
          "indexed": false,
          "internalType": "bytes",
          "name": "newAddress",
          "type": "bytes"
        }
      ],
      "name": "AddressChanged",
      "type": "event"
    },
    {
      "anonymous": false,
      "inputs": [
        {
          "indexed": true,
          "internalType": "address",
          "name": "owner",
          "type": "address"
        },
        {
          "indexed": true,
          "internalType": "address",
          "name": "operator",
          "type": "address"
        },
        {
          "indexed": false,
          "internalType": "bool",
          "name": "approved",
          "type": "bool"
        }
      ],
      "name": "ApprovalForAll",
      "type": "event"
    },
    {
      "anonymous": false,
      "inputs": [
        {
          "indexed": true,
          "internalType": "bytes32",
          "name": "node",
          "type": "bytes32"
        },
        {
          "indexed": false,
          "internalType": "bytes",
          "name": "hash",
          "type": "bytes"
        }
      ],
      "name": "ContenthashChanged",
      "type": "event"
    },
    {
      "anonymous": false,
      "inputs": [
        {
          "indexed": true,
          "internalType": "bytes32",
          "name": "node",
          "type": "bytes32"
        },
        {
          "indexed": false,
          "internalType": "bytes",
          "name": "name",
          "type": "bytes"
        },
        {
          "indexed": false,
          "internalType": "uint16",
          "name": "resource",
          "type": "uint16"
        },
        {
          "indexed": false,
          "internalType": "bytes",
          "name": "record",
          "type": "bytes"
        }
      ],
      "name": "DNSRecordChanged",
      "type": "event"
    },
    {
      "anonymous": false,
      "inputs": [
        {
          "indexed": true,
          "internalType": "bytes32",
          "name": "node",
          "type": "bytes32"
        },
        {
          "indexed": false,
          "internalType": "bytes",
          "name": "name",
          "type": "bytes"
        },
        {
          "indexed": false,
          "internalType": "uint16",
          "name": "resource",
          "type": "uint16"
        }
      ],
      "name": "DNSRecordDeleted",
      "type": "event"
    },
    {
      "anonymous": false,
      "inputs": [
        {
          "indexed": true,
          "internalType": "bytes32",
          "name": "node",
          "type": "bytes32"
        }
      ],
      "name": "DNSZoneCleared",
      "type": "event"
    },
    {
      "anonymous": false,
      "inputs": [
        {
          "indexed": true,
          "internalType": "bytes32",
          "name": "node",
          "type": "bytes32"
        },
        {
          "indexed": false,
          "internalType": "bytes",
          "name": "lastzonehash",
          "type": "bytes"
        },
        {
          "indexed": false,
          "internalType": "bytes",
          "name": "zonehash",
          "type": "bytes"
        }
      ],
      "name": "DNSZonehashChanged",
      "type": "event"
    },
    {
      "anonymous": false,
      "inputs": [
        {
          "indexed": true,
          "internalType": "bytes32",
          "name": "node",
          "type": "bytes32"
        },
        {
          "indexed": true,
          "internalType": "bytes4",
          "name": "interfaceID",
          "type": "bytes4"
        },
        {
          "indexed": false,
          "internalType": "address",
          "name": "implementer",
          "type": "address"
        }
      ],
      "name": "InterfaceChanged",
      "type": "event"
    },
    {
      "anonymous": false,
      "inputs": [
        {
          "indexed": true,
          "internalType": "bytes32",
          "name": "node",
          "type": "bytes32"
        },
        {
          "indexed": false,
          "internalType": "string",
          "name": "name",
          "type": "string"
        }
      ],
      "name": "NameChanged",
      "type": "event"
    },
    {
      "anonymous": false,
      "inputs": [
        {
          "indexed": true,
          "internalType": "bytes32",
          "name": "node",
          "type": "bytes32"
        },
        {
          "indexed": false,
          "internalType": "bytes32",
          "name": "x",
          "type": "bytes32"
        },
        {
          "indexed": false,
          "internalType": "bytes32",
          "name": "y",
          "type": "bytes32"
        }
      ],
      "name": "PubkeyChanged",
      "type": "event"
    },
    {
      "anonymous": false,
      "inputs": [
        {
          "indexed": true,
          "internalType": "bytes32",
          "name": "node",
          "type": "bytes32"
        },
        {
          "indexed": true,
          "internalType": "string",
          "name": "indexedKey",
          "type": "string"
        },
        {
          "indexed": false,
          "internalType": "string",
          "name": "key",
          "type": "string"
        }
      ],
      "name": "TextChanged",
      "type": "event"
    },
    {
      "inputs": [
        {
          "internalType": "bytes32",
          "name": "node",
          "type": "bytes32"
        },
        {
          "internalType": "uint256",
          "name": "contentTypes",
          "type": "uint256"
        }
      ],
      "name": "ABI",
      "outputs": [
        {
          "internalType": "uint256",
          "name": "",
          "type": "uint256"
        },
        {
          "internalType": "bytes",
          "name": "",
          "type": "bytes"
        }
      ],
      "stateMutability": "view",
      "type": "function"
    },
    {
      "inputs": [
        {
          "internalType": "bytes32",
          "name": "node",
          "type": "bytes32"
        }
      ],
      "name": "addr",
      "outputs": [
        {
          "internalType": "address payable",
          "name": "",
          "type": "address"
        }
      ],
      "stateMutability": "view",
      "type": "function"
    },
    {
      "inputs": [
        {
          "internalType": "bytes32",
          "name": "node",
          "type": "bytes32"
        },
        {
          "internalType": "uint256",
          "name": "coinType",
          "type": "uint256"
        }
      ],
      "name": "addr",
      "outputs": [
        {
          "internalType": "bytes",
          "name": "",
          "type": "bytes"
        }
      ],
      "stateMutability": "view",
      "type": "function"
    },
    {
      "inputs": [
        {
          "internalType": "bytes32",
          "name": "node",
          "type": "bytes32"
        }
      ],
      "name": "clearDNSZone",
      "outputs": [],
      "stateMutability": "nonpayable",
      "type": "function"
    },
    {
      "inputs": [
        {
          "internalType": "bytes32",
          "name": "node",
          "type": "bytes32"
        }
      ],
      "name": "contenthash",
      "outputs": [
        {
          "internalType": "bytes",
          "name": "",
          "type": "bytes"
        }
      ],
      "stateMutability": "view",
      "type": "function"
    },
    {
      "inputs": [
        {
          "internalType": "bytes32",
          "name": "node",
          "type": "bytes32"
        },
        {
          "internalType": "bytes32",
          "name": "name",
          "type": "bytes32"
        },
        {
          "internalType": "uint16",
          "name": "resource",
          "type": "uint16"
        }
      ],
      "name": "dnsRecord",
      "outputs": [
        {
          "internalType": "bytes",
          "name": "",
          "type": "bytes"
        }
      ],
      "stateMutability": "view",
      "type": "function"
    },
    {
      "inputs": [
        {
          "internalType": "bytes32",
          "name": "node",
          "type": "bytes32"
        },
        {
          "internalType": "bytes32",
          "name": "name",
          "type": "bytes32"
        }
      ],
      "name": "hasDNSRecords",
      "outputs": [
        {
          "internalType": "bool",
          "name": "",
          "type": "bool"
        }
      ],
      "stateMutability": "view",
      "type": "function"
    },
    {
      "inputs": [
        {
          "internalType": "bytes32",
          "name": "node",
          "type": "bytes32"
        },
        {
          "internalType": "bytes4",
          "name": "interfaceID",
          "type": "bytes4"
        }
      ],
      "name": "interfaceImplementer",
      "outputs": [
        {
          "internalType": "address",
          "name": "",
          "type": "address"
        }
      ],
      "stateMutability": "view",
      "type": "function"
    },
    {
      "inputs": [
        {
          "internalType": "address",
          "name": "account",
          "type": "address"
        },
        {
          "internalType": "address",
          "name": "operator",
          "type": "address"
        }
      ],
      "name": "isApprovedForAll",
      "outputs": [
        {
          "internalType": "bool",
          "name": "",
          "type": "bool"
        }
      ],
      "stateMutability": "view",
      "type": "function"
    },
    {
      "inputs": [
        {
          "internalType": "bytes[]",
          "name": "data",
          "type": "bytes[]"
        }
      ],
      "name": "multicall",
      "outputs": [
        {
          "internalType": "bytes[]",
          "name": "results",
          "type": "bytes[]"
        }
      ],
      "stateMutability": "nonpayable",
      "type": "function"
    },
    {
      "inputs": [
        {
          "internalType": "bytes32",
          "name": "node",
          "type": "bytes32"
        }
      ],
      "name": "name",
      "outputs": [
        {
          "internalType": "string",
          "name": "",
          "type": "string"
        }
      ],
      "stateMutability": "view",
      "type": "function"
    },
    {
      "inputs": [
        {
          "internalType": "bytes32",
          "name": "node",
          "type": "bytes32"
        }
      ],
      "name": "pubkey",
      "outputs": [
        {
          "internalType": "bytes32",
          "name": "x",
          "type": "bytes32"
        },
        {
          "internalType": "bytes32",
          "name": "y",
          "type": "bytes32"
        }
      ],
      "stateMutability": "view",
      "type": "function"
    },
    {
      "inputs": [
        {
          "internalType": "bytes32",
          "name": "node",
          "type": "bytes32"
        },
        {
          "internalType": "uint256",
          "name": "contentType",
          "type": "uint256"
        },
        {
          "internalType": "bytes",
          "name": "data",
          "type": "bytes"
        }
      ],
      "name": "setABI",
      "outputs": [],
      "stateMutability": "nonpayable",
      "type": "function"
    },
    {
      "inputs": [
        {
          "internalType": "bytes32",
          "name": "node",
          "type": "bytes32"
        },
        {
          "internalType": "uint256",
          "name": "coinType",
          "type": "uint256"
        },
        {
          "internalType": "bytes",
          "name": "a",
          "type": "bytes"
        }
      ],
      "name": "setAddr",
      "outputs": [],
      "stateMutability": "nonpayable",
      "type": "function"
    },
    {
      "inputs": [
        {
          "internalType": "bytes32",
          "name": "node",
          "type": "bytes32"
        },
        {
          "internalType": "address",
          "name": "a",
          "type": "address"
        }
      ],
      "name": "setAddr",
      "outputs": [],
      "stateMutability": "nonpayable",
      "type": "function"
    },
    {
      "inputs": [
        {
          "internalType": "address",
          "name": "operator",
          "type": "address"
        },
        {
          "internalType": "bool",
          "name": "approved",
          "type": "bool"
        }
      ],
      "name": "setApprovalForAll",
      "outputs": [],
      "stateMutability": "nonpayable",
      "type": "function"
    },
    {
      "inputs": [
        {
          "internalType": "bytes32",
          "name": "node",
          "type": "bytes32"
        },
        {
          "internalType": "bytes",
          "name": "hash",
          "type": "bytes"
        }
      ],
      "name": "setContenthash",
      "outputs": [],
      "stateMutability": "nonpayable",
      "type": "function"
    },
    {
      "inputs": [
        {
          "internalType": "bytes32",
          "name": "node",
          "type": "bytes32"
        },
        {
          "internalType": "bytes",
          "name": "data",
          "type": "bytes"
        }
      ],
      "name": "setDNSRecords",
      "outputs": [],
      "stateMutability": "nonpayable",
      "type": "function"
    },
    {
      "inputs": [
        {
          "internalType": "bytes32",
          "name": "node",
          "type": "bytes32"
        },
        {
          "internalType": "bytes4",
          "name": "interfaceID",
          "type": "bytes4"
        },
        {
          "internalType": "address",
          "name": "implementer",
          "type": "address"
        }
      ],
      "name": "setInterface",
      "outputs": [],
      "stateMutability": "nonpayable",
      "type": "function"
    },
    {
      "inputs": [
        {
          "internalType": "bytes32",
          "name": "node",
          "type": "bytes32"
        },
        {
          "internalType": "string",
          "name": "newName",
          "type": "string"
        }
      ],
      "name": "setName",
      "outputs": [],
      "stateMutability": "nonpayable",
      "type": "function"
    },
    {
      "inputs": [
        {
          "internalType": "bytes32",
          "name": "node",
          "type": "bytes32"
        },
        {
          "internalType": "bytes32",
          "name": "x",
          "type": "bytes32"
        },
        {
          "internalType": "bytes32",
          "name": "y",
          "type": "bytes32"
        }
      ],
      "name": "setPubkey",
      "outputs": [],
      "stateMutability": "nonpayable",
      "type": "function"
    },
    {
      "inputs": [
        {
          "internalType": "bytes32",
          "name": "node",
          "type": "bytes32"
        },
        {
          "internalType": "string",
          "name": "key",
          "type": "string"
        },
        {
          "internalType": "string",
          "name": "value",
          "type": "string"
        }
      ],
      "name": "setText",
      "outputs": [],
      "stateMutability": "nonpayable",
      "type": "function"
    },
    {
      "inputs": [
        {
          "internalType": "bytes32",
          "name": "node",
          "type": "bytes32"
        },
        {
          "internalType": "bytes",
          "name": "hash",
          "type": "bytes"
        }
      ],
      "name": "setZonehash",
      "outputs": [],
      "stateMutability": "nonpayable",
      "type": "function"
    },
    {
      "inputs": [
        {
          "internalType": "bytes4",
          "name": "interfaceID",
          "type": "bytes4"
        }
      ],
      "name": "supportsInterface",
      "outputs": [
        {
          "internalType": "bool",
          "name": "",
          "type": "bool"
        }
      ],
      "stateMutability": "pure",
      "type": "function"
    },
    {
      "inputs": [
        {
          "internalType": "bytes32",
          "name": "node",
          "type": "bytes32"
        },
        {
          "internalType": "string",
          "name": "key",
          "type": "string"
        }
      ],
      "name": "text",
      "outputs": [
        {
          "internalType": "string",
          "name": "",
          "type": "string"
        }
      ],
      "stateMutability": "view",
      "type": "function"
    },
    {
      "inputs": [
        {
          "internalType": "bytes32",
          "name": "node",
          "type": "bytes32"
        }
      ],
      "name": "zonehash",
      "outputs": [
        {
          "internalType": "bytes",
          "name": "",
          "type": "bytes"
        }
      ],
      "stateMutability": "view",
      "type": "function"
    }
  ],
  "transactionHash": "0xcaf502fdf57761a6743d0b82b20e75ba8653d6f608774a645271787530ca18f1",
  "args": [
    "0xCfb86556760d03942EBf1ba88a9870e67D77b627",
    "0x19D16979a01a7474840748EcAEED925725CA1624"
  ],
  "bytecode": "0x60806040523480156200001157600080fd5b5060405162002e8538038062002e85833981016040819052620000349162000066565b600b80546001600160a01b039384166001600160a01b031991821617909155600c8054929093169116179055620000bd565b6000806040838503121562000079578182fd5b82516200008681620000a4565b60208401519092506200009981620000a4565b809150509250929050565b6001600160a01b0381168114620000ba57600080fd5b50565b612db880620000cd6000396000f3fe608060405234801561001057600080fd5b50600436106101ae5760003560e01c806377372213116100ee578063bc1c58d111610097578063d5fa2b0011610071578063d5fa2b0014610410578063e59d895d14610423578063e985e9c514610436578063f1cb7e061461047f57600080fd5b8063bc1c58d1146103ad578063c8690233146103c0578063ce3decdc146103fd57600080fd5b8063a8fa5682116100c8578063a8fa568214610367578063ac9650d81461037a578063ad5780af1461039a57600080fd5b8063773722131461032e5780638b95dd7114610341578063a22cb4651461035457600080fd5b8063304e6ade1161015b57806359d1d43c1161013557806359d1d43c146102d55780635c98042b146102f5578063623195b014610308578063691f34311461031b57600080fd5b8063304e6ade1461026f5780633b3b57de146102825780634cbf6ba41461029557600080fd5b8063124a319c1161018c578063124a319c146102035780632203ab561461023b57806329cd62ea1461025c57600080fd5b806301ffc9a7146101b35780630af179d7146101db57806310f13a8c146101f0575b600080fd5b6101c66101c1366004612939565b610492565b60405190151581526020015b60405180910390f35b6101ee6101e936600461274a565b6104ee565b005b6101ee6101fe366004612794565b6106d9565b6102166102113660046126eb565b610786565b60405173ffffffffffffffffffffffffffffffffffffffff90911681526020016101d2565b61024e610249366004612661565b610b51565b6040516101d2929190612b3c565b6101ee61026a366004612682565b610c6c565b6101ee61027d36600461274a565b610cec565b610216610290366004612625565b610d4b565b6101c66102a3366004612661565b600091825260066020908152604080842060048352818520548552825280842092845291905290205461ffff16151590565b6102e86102e336600461274a565b610d81565b6040516101d29190612aa4565b6102e8610303366004612625565b610e46565b6101ee61031636600461280b565b610ee8565b6102e8610329366004612625565b610f69565b6101ee61033c36600461274a565b610f86565b6101ee61034f36600461285c565b610fe5565b6101ee610362366004612584565b6110c0565b6102e86103753660046126ad565b611201565b61038d6103883660046125b5565b611244565b6040516101d29190612a11565b6101ee6103a8366004612625565b6113d4565b6102e86103bb366004612625565b611435565b6103e86103ce366004612625565b600090815260096020526040902080546001909101549091565b604080519283526020830191909152016101d2565b6101ee61040b36600461274a565b611452565b6101ee61041e36600461263d565b61155e565b6101ee610431366004612716565b611588565b6101c661044436600461254c565b73ffffffffffffffffffffffffffffffffffffffff9182166000908152600d6020908152604080832093909416825291909152205460ff1690565b6102e861048d366004612661565b611652565b60007fffffffff0000000000000000000000000000000000000000000000000000000082167fac9650d80000000000000000000000000000000000000000000000000000000014806104e857506104e882611700565b92915050565b826104f881611756565b61050157600080fd5b60008060608060008061054e60008a8a8080601f01602080910402602001604051908101604052809392919081815260200183838082843760009201919091525092939250506119209050565b90505b805151602082015110156106745761ffff86166105b3578060400151955061057881611981565b93508360405160200161058b91906129f5565b6040516020818303038152906040528051906020012091506105ac816119a2565b9250610666565b60006105be82611981565b9050816040015161ffff168761ffff161415806105e257506105e085826119be565b155b156106645761063d8b86898d8d8080601f016020809104026020016040519081016040528093929190818152602001838380828437600092019190915250505060208801518c9150610635908290612bd0565b8a51156119dc565b816040015196508160200151955080945084805190602001209250610661826119a2565b93505b505b61066f81611c1e565b610551565b508251156106ce576106ce8984878b8b8080601f0160208091040260200160405190810160405280939291908181526020018383808284376000920191909152508b92506106c691508290508e612bd0565b8851156119dc565b505050505050505050565b846106e381611756565b6106ec57600080fd5b8282600a600089815260200190815260200160002087876040516107119291906129e5565b90815260405190819003602001902061072b929091612353565b50848460405161073c9291906129e5565b6040518091039020867fd8c9334b1a9c2f9da342a0a2b32629c1a229b6445dad78947f674b44444a75508787604051610776929190612a90565b60405180910390a3505050505050565b60008281526007602090815260408083207fffffffff000000000000000000000000000000000000000000000000000000008516845290915281205473ffffffffffffffffffffffffffffffffffffffff1680156107e55790506104e8565b60006107f085610d4b565b905073ffffffffffffffffffffffffffffffffffffffff8116610818576000925050506104e8565b6040517f01ffc9a7000000000000000000000000000000000000000000000000000000006024820152600090819073ffffffffffffffffffffffffffffffffffffffff841690604401604080517fffffffffffffffffffffffffffffffffffffffffffffffffffffffffffffffe08184030181529181526020820180517bffffffffffffffffffffffffffffffffffffffffffffffffffffffff167f01ffc9a700000000000000000000000000000000000000000000000000000000179052516108e291906129f5565b600060405180830381855afa9150503d806000811461091d576040519150601f19603f3d011682016040523d82523d6000602084013e610922565b606091505b5091509150811580610935575060208151105b8061099e575080601f81518110610975577f4e487b7100000000000000000000000000000000000000000000000000000000600052603260045260246000fd5b01602001517fff0000000000000000000000000000000000000000000000000000000000000016155b156109b05760009450505050506104e8565b6040517fffffffff000000000000000000000000000000000000000000000000000000008716602482015273ffffffffffffffffffffffffffffffffffffffff841690604401604080517fffffffffffffffffffffffffffffffffffffffffffffffffffffffffffffffe08184030181529181526020820180517bffffffffffffffffffffffffffffffffffffffffffffffffffffffff167f01ffc9a70000000000000000000000000000000000000000000000000000000017905251610a7791906129f5565b600060405180830381855afa9150503d8060008114610ab2576040519150601f19603f3d011682016040523d82523d6000602084013e610ab7565b606091505b509092509050811580610acb575060208151105b80610b34575080601f81518110610b0b577f4e487b7100000000000000000000000000000000000000000000000000000000600052603260045260246000fd5b01602001517fff0000000000000000000000000000000000000000000000000000000000000016155b15610b465760009450505050506104e8565b509095945050505050565b600082815260208190526040812060609060015b848111610c4c5780851615801590610b95575060008181526020839052604081208054610b9190612c53565b9050115b15610c445780826000838152602001908152602001600020808054610bb990612c53565b80601f0160208091040260200160405190810160405280929190818152602001828054610be590612c53565b8015610c325780601f10610c0757610100808354040283529160200191610c32565b820191906000526020600020905b815481529060010190602001808311610c1557829003601f168201915b50505050509050935093505050610c65565b60011b610b65565b5060006040518060200160405280600081525092509250505b9250929050565b82610c7681611756565b610c7f57600080fd5b60408051808201825284815260208082018581526000888152600983528490209251835551600190920191909155815185815290810184905285917f1d6f5e03d3f63eb58751986629a5439baee5079ff04f345becb66e23eb154e4691015b60405180910390a250505050565b82610cf681611756565b610cff57600080fd5b6000848152600260205260409020610d18908484612353565b50837fe379c1624ed7e714cc0937528a32359d69d5281337765313dba4e081b72d75788484604051610cde929190612a90565b600080610d5c836380002710611652565b9050805160001415610d715750600092915050565b610d7a81611d06565b9392505050565b6060600a60008581526020019081526020016000208383604051610da69291906129e5565b90815260200160405180910390208054610dbf90612c53565b80601f0160208091040260200160405190810160405280929190818152602001828054610deb90612c53565b8015610e385780601f10610e0d57610100808354040283529160200191610e38565b820191906000526020600020905b815481529060010190602001808311610e1b57829003601f168201915b505050505090509392505050565b6000818152600360205260409020805460609190610e6390612c53565b80601f0160208091040260200160405190810160405280929190818152602001828054610e8f90612c53565b8015610edc5780601f10610eb157610100808354040283529160200191610edc565b820191906000526020600020905b815481529060010190602001808311610ebf57829003601f168201915b50505050509050919050565b83610ef281611756565b610efb57600080fd5b83610f07600182612bd0565b1615610f1257600080fd5b6000858152602081815260408083208784529091529020610f34908484612353565b50604051849086907faa121bbeef5f32f5961a2a28966e769023910fc9479059ee3495d4c1a696efe390600090a35050505050565b6000818152600860205260409020805460609190610e6390612c53565b82610f9081611756565b610f9957600080fd5b6000848152600860205260409020610fb2908484612353565b50837fb7d29e911041e8d9b843369e890bcb72c9388692ba48b65ac54e7214c4c348f78484604051610cde929190612a90565b82610fef81611756565b610ff857600080fd5b638000271083141561105857837f52d7d861f09ab3d26239d492e8968629f95e9e318cf0b73bfddc441522a15fd261102f84611d06565b60405173ffffffffffffffffffffffffffffffffffffffff909116815260200160405180910390a25b837f65412581168e88a1e60c6459d7f44ae83ad0832e670826c05a4e2476b57af752848460405161108a929190612b3c565b60405180910390a26000848152600160209081526040808320868452825290912083516110b9928501906123f5565b5050505050565b3373ffffffffffffffffffffffffffffffffffffffff8316141561116a576040517f08c379a000000000000000000000000000000000000000000000000000000000815260206004820152602960248201527f455243313135353a2073657474696e6720617070726f76616c2073746174757360448201527f20666f722073656c660000000000000000000000000000000000000000000000606482015260840160405180910390fd5b336000818152600d6020908152604080832073ffffffffffffffffffffffffffffffffffffffff87168085529083529281902080547fffffffffffffffffffffffffffffffffffffffffffffffffffffffffffffff001686151590811790915590519081529192917f17307eab39ab6107e8899845ad3d59bd9653f200f220920489ca2b5937696c31910160405180910390a35050565b6000838152600560209081526040808320600483528184205484528252808320858452825280832061ffff851684529091529020805460609190610dbf90612c53565b60608167ffffffffffffffff811115611286577f4e487b7100000000000000000000000000000000000000000000000000000000600052604160045260246000fd5b6040519080825280602002602001820160405280156112b957816020015b60608152602001906001900390816112a45790505b50905060005b828110156113cd5760008030868685818110611304577f4e487b7100000000000000000000000000000000000000000000000000000000600052603260045260246000fd5b90506020028101906113169190612b55565b6040516113249291906129e5565b600060405180830381855af49150503d806000811461135f576040519150601f19603f3d011682016040523d82523d6000602084013e611364565b606091505b50915091508161137357600080fd5b808484815181106113ad577f4e487b7100000000000000000000000000000000000000000000000000000000600052603260045260246000fd5b6020026020010181905250505080806113c590612cc9565b9150506112bf565b5092915050565b806113de81611756565b6113e757600080fd5b600082815260046020526040812080549161140183612cc9565b909155505060405182907fb757169b8492ca2f1c6619d9d76ce22803035c3b1d5f6930dffe7b127c1a198390600090a25050565b6000818152600260205260409020805460609190610e6390612c53565b8261145c81611756565b61146557600080fd5b6000848152600360205260408120805461147e90612c53565b80601f01602080910402602001604051908101604052809291908181526020018280546114aa90612c53565b80156114f75780601f106114cc576101008083540402835291602001916114f7565b820191906000526020600020905b8154815290600101906020018083116114da57829003601f168201915b505050600088815260036020526040902092935061151a92915086905085612353565b50847f8f15ed4b723ef428f250961da8315675b507046737e19319fc1a4d81bfe87f8582868660405161154f93929190612ab7565b60405180910390a25050505050565b8161156881611756565b61157157600080fd5b61158383638000271061034f85611d2e565b505050565b8261159281611756565b61159b57600080fd5b60008481526007602090815260408083207fffffffff0000000000000000000000000000000000000000000000000000000087168085529083529281902080547fffffffffffffffffffffffff00000000000000000000000000000000000000001673ffffffffffffffffffffffffffffffffffffffff8716908117909155905190815286917f7c69f06bea0bdef565b709e93a147836b0063ba2dd89f02d0b7e8d931e6a6daa910160405180910390a350505050565b6000828152600160209081526040808320848452909152902080546060919061167a90612c53565b80601f01602080910402602001604051908101604052809291908181526020018280546116a690612c53565b80156116f35780601f106116c8576101008083540402835291602001916116f3565b820191906000526020600020905b8154815290600101906020018083116116d657829003601f168201915b5050505050905092915050565b60007fffffffff0000000000000000000000000000000000000000000000000000000082167f59d1d43c0000000000000000000000000000000000000000000000000000000014806104e857506104e882611d67565b600b546040517f02571be300000000000000000000000000000000000000000000000000000000815260048101839052600091829173ffffffffffffffffffffffffffffffffffffffff909116906302571be39060240160206040518083038186803b1580156117c557600080fd5b505afa1580156117d9573d6000803e3d6000fd5b505050506040513d601f19601f820116820180604052508101906117fd9190612530565b600c5490915073ffffffffffffffffffffffffffffffffffffffff808316911614156118c857600c546040517f6352211e0000000000000000000000000000000000000000000000000000000081526004810185905273ffffffffffffffffffffffffffffffffffffffff90911690636352211e9060240160206040518083038186803b15801561188d57600080fd5b505afa1580156118a1573d6000803e3d6000fd5b505050506040513d601f19601f820116820180604052508101906118c59190612530565b90505b73ffffffffffffffffffffffffffffffffffffffff8116331480610d7a575073ffffffffffffffffffffffffffffffffffffffff81166000908152600d6020908152604080832033845290915290205460ff16610d7a565b61196e6040518060e001604052806060815260200160008152602001600061ffff168152602001600061ffff168152602001600063ffffffff16815260200160008152602001600081525090565b82815260c081018290526104e881611c1e565b602081015181516060916104e8916119999082611dbd565b84519190611e43565b60a081015160c08201516060916104e891611999908290612bd0565b600081518351148015610d7a5750610d7a8360008460008751611ee1565b60008781526004602090815260408220548851918901919091209091611a03878787611e43565b90508315611b0c5760008a81526005602090815260408083208684528252808320858452825280832061ffff8c16845290915290208054611a4390612c53565b159050611a975760008a815260066020908152604080832086845282528083208584529091528120805461ffff1691611a7b83612c17565b91906101000a81548161ffff021916908361ffff160217905550505b60008a81526005602090815260408083208684528252808320858452825280832061ffff8c1684529091528120611acd91612469565b897f03528ed0c2a3ebc993b12ce3c16bb382f9c7d88ef7d8a1bf290eaf35955a12078a8a604051611aff929190612ae7565b60405180910390a2611c12565b60008a81526005602090815260408083208684528252808320858452825280832061ffff8c16845290915290208054611b4490612c53565b15159050611b995760008a815260066020908152604080832086845282528083208584529091528120805461ffff1691611b7d83612ca7565b91906101000a81548161ffff021916908361ffff160217905550505b60008a81526005602090815260408083208684528252808320858452825280832061ffff8c16845282529091208251611bd4928401906123f5565b50897f52a608b3303a48862d07a73d82fa221318c0027fbbcfb1b2329bface3f19ff2b8a8a84604051611c0993929190612b0d565b60405180910390a25b50505050505050505050565b60c08101516020820181905281515111611c355750565b6000611c4982600001518360200151611dbd565b8260200151611c589190612bb8565b8251909150611c679082611f04565b61ffff166040830152611c7b600282612bb8565b8251909150611c8a9082611f04565b61ffff166060830152611c9e600282612bb8565b8251909150611cad9082611f2c565b63ffffffff166080830152611cc3600482612bb8565b8251909150600090611cd59083611f04565b61ffff169050611ce6600283612bb8565b60a084018190529150611cf98183612bb8565b60c0909301929092525050565b60008151601414611d1657600080fd5b50602001516c01000000000000000000000000900490565b6040805160148082528183019092526060916020820181803683375050506c010000000000000000000000009290920260208301525090565b60007fffffffff0000000000000000000000000000000000000000000000000000000082167fc86902330000000000000000000000000000000000000000000000000000000014806104e857506104e882611f56565b6000815b83518110611df8577f4e487b7100000000000000000000000000000000000000000000000000000000600052600160045260246000fd5b6000611e048583611fac565b60ff169050611e14816001612bb8565b611e1e9083612bb8565b915080611e2b5750611e31565b50611dc1565b611e3b8382612bd0565b949350505050565b8251606090611e528385612bb8565b1115611e5d57600080fd5b60008267ffffffffffffffff811115611e9f577f4e487b7100000000000000000000000000000000000000000000000000000000600052604160045260246000fd5b6040519080825280601f01601f191660200182016040528015611ec9576020820181803683370190505b50905060208082019086860101610b46828287611ff7565b6000611eee84848461206b565b611ef987878561206b565b149695505050505050565b8151600090611f14836002612bb8565b1115611f1f57600080fd5b50016002015161ffff1690565b8151600090611f3c836004612bb8565b1115611f4757600080fd5b50016004015163ffffffff1690565b60007fffffffff0000000000000000000000000000000000000000000000000000000082167f691f34310000000000000000000000000000000000000000000000000000000014806104e857506104e88261208f565b6000828281518110611fe7577f4e487b7100000000000000000000000000000000000000000000000000000000600052603260045260246000fd5b016020015160f81c905092915050565b6020811061202f578151835261200e602084612bb8565b925061201b602083612bb8565b9150612028602082612bd0565b9050611ff7565b905182516020929092036101000a7fffffffffffffffffffffffffffffffffffffffffffffffffffffffffffffffff0180199091169116179052565b825160009061207a8385612bb8565b111561208557600080fd5b5091016020012090565b60007fffffffff0000000000000000000000000000000000000000000000000000000082167f124a319c0000000000000000000000000000000000000000000000000000000014806104e857506104e88260007fffffffff0000000000000000000000000000000000000000000000000000000082167fa8fa568200000000000000000000000000000000000000000000000000000000148061217357507fffffffff0000000000000000000000000000000000000000000000000000000082167f5c98042b00000000000000000000000000000000000000000000000000000000145b806104e857506104e88260007fffffffff0000000000000000000000000000000000000000000000000000000082167fbc1c58d10000000000000000000000000000000000000000000000000000000014806104e857506104e88260007fffffffff0000000000000000000000000000000000000000000000000000000082167f3b3b57de00000000000000000000000000000000000000000000000000000000148061226157507fffffffff0000000000000000000000000000000000000000000000000000000082167ff1cb7e0600000000000000000000000000000000000000000000000000000000145b806104e857506104e88260007fffffffff0000000000000000000000000000000000000000000000000000000082167f2203ab560000000000000000000000000000000000000000000000000000000014806104e857506104e88260007fffffffff0000000000000000000000000000000000000000000000000000000082167fac9650d80000000000000000000000000000000000000000000000000000000014806104e857507f01ffc9a7000000000000000000000000000000000000000000000000000000007fffffffff000000000000000000000000000000000000000000000000000000008316146104e8565b82805461235f90612c53565b90600052602060002090601f01602090048101928261238157600085556123e5565b82601f106123b8578280017fffffffffffffffffffffffffffffffffffffffffffffffffffffffffffffff008235161785556123e5565b828001600101855582156123e5579182015b828111156123e55782358255916020019190600101906123ca565b506123f19291506124a6565b5090565b82805461240190612c53565b90600052602060002090601f01602090048101928261242357600085556123e5565b82601f1061243c57805160ff19168380011785556123e5565b828001600101855582156123e5579182015b828111156123e557825182559160200191906001019061244e565b50805461247590612c53565b6000825580601f10612485575050565b601f0160209004906000526020600020908101906124a391906124a6565b50565b5b808211156123f157600081556001016124a7565b80357fffffffff00000000000000000000000000000000000000000000000000000000811681146124eb57600080fd5b919050565b60008083601f840112612501578182fd5b50813567ffffffffffffffff811115612518578182fd5b602083019150836020828501011115610c6557600080fd5b600060208284031215612541578081fd5b8151610d7a81612d60565b6000806040838503121561255e578081fd5b823561256981612d60565b9150602083013561257981612d60565b809150509250929050565b60008060408385031215612596578182fd5b82356125a181612d60565b915060208301358015158114612579578182fd5b600080602083850312156125c7578182fd5b823567ffffffffffffffff808211156125de578384fd5b818501915085601f8301126125f1578384fd5b8135818111156125ff578485fd5b8660208260051b8501011115612613578485fd5b60209290920196919550909350505050565b600060208284031215612636578081fd5b5035919050565b6000806040838503121561264f578182fd5b82359150602083013561257981612d60565b60008060408385031215612673578182fd5b50508035926020909101359150565b600080600060608486031215612696578081fd5b505081359360208301359350604090920135919050565b6000806000606084860312156126c1578283fd5b8335925060208401359150604084013561ffff811681146126e0578182fd5b809150509250925092565b600080604083850312156126fd578182fd5b8235915061270d602084016124bb565b90509250929050565b60008060006060848603121561272a578283fd5b8335925061273a602085016124bb565b915060408401356126e081612d60565b60008060006040848603121561275e578081fd5b83359250602084013567ffffffffffffffff81111561277b578182fd5b612787868287016124f0565b9497909650939450505050565b6000806000806000606086880312156127ab578283fd5b85359450602086013567ffffffffffffffff808211156127c9578485fd5b6127d589838a016124f0565b909650945060408801359150808211156127ed578283fd5b506127fa888289016124f0565b969995985093965092949392505050565b60008060008060608587031215612820578182fd5b8435935060208501359250604085013567ffffffffffffffff811115612844578283fd5b612850878288016124f0565b95989497509550505050565b600080600060608486031215612870578081fd5b8335925060208401359150604084013567ffffffffffffffff80821115612895578283fd5b818601915086601f8301126128a8578283fd5b8135818111156128ba576128ba612d31565b604051601f82017fffffffffffffffffffffffffffffffffffffffffffffffffffffffffffffffe0908116603f0116810190838211818310171561290057612900612d31565b81604052828152896020848701011115612918578586fd5b82602086016020830137856020848301015280955050505050509250925092565b60006020828403121561294a578081fd5b610d7a826124bb565b81835281816020850137506000806020838501015260207fffffffffffffffffffffffffffffffffffffffffffffffffffffffffffffffe0601f840116840101905092915050565b600081518084526129b3816020860160208601612be7565b601f017fffffffffffffffffffffffffffffffffffffffffffffffffffffffffffffffe0169290920160200192915050565b8183823760009101908152919050565b60008251612a07818460208701612be7565b9190910192915050565b6000602080830181845280855180835260408601915060408160051b8701019250838701855b82811015612a83577fffffffffffffffffffffffffffffffffffffffffffffffffffffffffffffffc0888603018452612a7185835161299b565b94509285019290850190600101612a37565b5092979650505050505050565b602081526000611e3b602083018486612953565b602081526000610d7a602083018461299b565b604081526000612aca604083018661299b565b8281036020840152612add818587612953565b9695505050505050565b604081526000612afa604083018561299b565b905061ffff831660208301529392505050565b606081526000612b20606083018661299b565b61ffff851660208401528281036040840152612add818561299b565b828152604060208201526000611e3b604083018461299b565b60008083357fffffffffffffffffffffffffffffffffffffffffffffffffffffffffffffffe1843603018112612b89578283fd5b83018035915067ffffffffffffffff821115612ba3578283fd5b602001915036819003821315610c6557600080fd5b60008219821115612bcb57612bcb612d02565b500190565b600082821015612be257612be2612d02565b500390565b60005b83811015612c02578181015183820152602001612bea565b83811115612c11576000848401525b50505050565b600061ffff821680612c2b57612c2b612d02565b7fffffffffffffffffffffffffffffffffffffffffffffffffffffffffffffffff0192915050565b600181811c90821680612c6757607f821691505b60208210811415612ca1577f4e487b7100000000000000000000000000000000000000000000000000000000600052602260045260246000fd5b50919050565b600061ffff80831681811415612cbf57612cbf612d02565b6001019392505050565b60007fffffffffffffffffffffffffffffffffffffffffffffffffffffffffffffffff821415612cfb57612cfb612d02565b5060010190565b7f4e487b7100000000000000000000000000000000000000000000000000000000600052601160045260246000fd5b7f4e487b7100000000000000000000000000000000000000000000000000000000600052604160045260246000fd5b73ffffffffffffffffffffffffffffffffffffffff811681146124a357600080fdfea264697066735822122006fb56eeaea5dbfaea10f1aba999c3c35ce1eaf7aa7011aee3d87a69043493cc64736f6c63430008040033"
}